:020000040800F2
:10000000300C0020A1010008FF270008652300082C
:10001000FD270008DD140008C52B000800000000C3
:10002000000000000000000000000000DD280008C3
:10003000DF140008000000000128000887290008DC
:10004000BB010008BB010008BB010008BB010008A0
:10005000BB010008BB010008BB010008BB01000890
:10006000BB010008BB010008BB010008BB01000880
:10007000BB010008BB010008BB010008BB01000870
:10008000BB010008BB010008BB010008BB01000860
:10009000BB010008BB010008BB010008BB01000850
:1000A000BB010008BB010008BB010008BB01000840
:1000B000BB010008BB010008BB010008BB01000830
:1000C000BB010008BB010008BB010008BB01000820
:1000D000BB010008BB010008BB010008BB01000810
:1000E000BB010008BB010008BB01000800F002F8DA
:1000F00000F047F80AA090E8000C82448344AAF17B
:100100000107DA4501D100F03CF8AFF2090EBAE878
:100110000F0013F0010F18BFFB1A43F0010318473B
:10012000A8520000C8520000103A24BF78C878C115
:10013000FAD8520724BF30C830C144BF04680C60ED
:10014000704700000023002400250026103A28BF35
:1001500078C1FBD8520728BF30C148BF0B60704739
:10016000662904F00480002070471FB500F04CFBA6
:1001700004000020002103F021FEE0601FBD10B547
:1001800010BD00F041FC1146FFF7EFFF02F046FD05
:1001900000F05FFC03B4FFF7F2FF03BC00F0A4FC27
:1001A0000948804709480047FEE7FEE7FEE7FEE70B
:1001B000FEE7FEE7FEE7FEE7FEE7FEE70448054947
:1001C000054A064B70470000E9290008ED000008C9
:1001D00030060020300C00203008002030080020BD
:1001E0000FB41CB5074B06AA7B44694600900598DE
:1001F00000F0F1FA0020694600F000FB1CBC5DF83D
:1002000014FB0000110600002DE9F0474FF0000A32
:1002100089460446C0F820A02046E16888470028A7
:1002200076D0252806D0D4E901219047206A401CC9
:100230002062F1E7E168204600258847C4F81CA049
:1002400006460027C4F818A02A2E09D0304602F02E
:10025000DEFC38B304EB8708303EC8F8186019E0BC
:1002600059F8041B204604EB87029161E168884736
:10027000012F064618D1E069002820DA25F0200574
:100280001DE0D8F8180000EB800006EB4000303885
:10029000C8F818002046E1688847064602F0B7FC17
:1002A0000028EED1012F0AD02E2E08D12046E16879
:1002B00088477F1C0646022F45F02005C4DBA06955
:1002C000002803DA404245F00105A061E80701D0AB
:1002D00025F01005B6B1A6F14100192802D8203644
:1002E00045F400654A463146204625604D46FFF7F5
:1002F00037FF58B1012806D0ED1D25F0070000F1A9
:10030000080989E704E005F1040985E730468AE732
:10031000206ABDE8F0874FF000020429C0F0128087
:1003200010F0030C00F01B80CCF1040CBCF1020FA8
:1003300018BF00F8012BA8BF20F8022BA1EB0C017D
:1003400000F00DB85FEAC17C24BF00F8012B00F873
:10035000012B48BF00F8012B70474FF0000200B599
:10036000134694469646203922BFA0E80C50A0E8D8
:100370000C50B1F12001BFF4F7AF090728BFA0E886
:100380000C5048BF0CC05DF804EB890028BF40F852
:10039000042B08BF704748BF20F8022B11F0804F94
:1003A00018BF00F8012B70477047704770477047BF
:1003B0002DE9FF4F0C461E464FF0FF378BB0D2E9B8
:1003C0000001DDF860800A908A46C1F30A5505B93C
:1003D0003D46002108464FF00000BAF1000F00F43E
:1003E000400005DA00EB80004FF4400101EA5000C4
:1003F0004FEA9059B9F1010F00DDB9460A9850EA69
:100400004A000ED044F61050A5F2FF3545432F1494
:10041000B8F1000F1ED07542291E1EDDC9F1000281
:100420001CE0B8F1010F4FF0000001D0302103E0D3
:10043000F24305E02154401CB042FBDB3046002271
:10044000002121540B99C1F80880C1E900200FB0A8
:10045000BDE8F08FBD1B6D1CDEE74A4600DA69423D
:1004600006A800F05BFA06AB93E8070003AB83E84D
:10047000070050460A9900F03DFB8DE80700A0F503
:1004800000501F3800900398002D0ADD42F21F0132
:100490004A460844002303A90390684600F0A6FDDD
:1004A00009E0A0F500504A461F38002303A9039035
:1004B000684600F0B0FD8DE807000004000C03D092
:1004C0004FF0FF30410800E01046B8F1000F03D0B4
:1004D0000022009215461EE0751E05D400F098F922
:1004E000303262556D1EF9D5B3460122084302D061
:1004F00000227F1C04E02078302801D100227F1EDA
:10050000002A099784D01DE0112D07DA00F080F948
:10051000303262556D1C50EA0102F5D1084302D019
:100520000098C8B10EE00021681E05E0235C625C03
:1005300063542254401E491C8142F7DBAB46A81B82
:10054000401E0990002004F80B000B98099AC0F88F
:100550000880C0E9002B7AE711264FF0000857E722
:100560002DE9F04F88460446D21D22F0070191B0D4
:10057000D1E90001CDE90A0102F025FB02460B9802
:10058000C00F01D02D2007E02068810701D52B2066
:1005900002E0202101EAC000032A099001D0072AC5
:1005A00005DB03464146204600F078F90BE1207850
:1005B000800601D5E06900E00620B8F1650F8146AC
:1005C00006D0B8F1660F18D0B8F1670F70D131E0DE
:1005D0000020B9F1110F009001DB112301E009F1B6
:1005E00001030AAA01A90CA8FFF7E2FEDDE90C70DD
:1005F000002609F10105834647E001204B460090A3
:100600004FF000470AAA01A90CA8FFF7D1FEDDE9C7
:100610000DB00C995D46002610B909F101000D18C6
:10062000B9EB050003D4C0F1FF3609F10105A5EBD4
:1006300009002BE0B9F1010F01DA4FF001090020A8
:10064000B9F1110F0090484601DD112300E0034687
:100650000AAA01A90CA8FFF7ABFEDDE90C704D4614
:1006600000268346207800070AD4AB4500DA5D46B1
:1006700001A8012D04DD411911F8011C302907D012
:100680004F4502DA17F1040F04DA012082460FE029
:100690006D1EEEE7002F02DCED1B3E4403E0781CEC
:1006A000A84200DD7D1CB81B00F1010A4FF0004795
:1006B0002078000703D4AA4501DB4FF0FF3A002160
:1006C000B7F1004F0DF143088DF8431024D00220FC
:1006D0002B23002F01DA7F422D230A21021EA0F1D5
:1006E000010000DC5FB197FBF1FC97FBF1F201FB2D
:1006F0001C7C17460CF1300C08F801CDEEE7A8F190
:10070000010003702188090501D5452100E065211C
:10071000A0F1010800F8011C09980FA9A1EB080736
:10072000FF1D00B10120411901EBEA70A1693844B5
:10073000081A401EA0612078C00602D42046AFF3FC
:100740000080099828B1D4E901219047206A401C13
:1007500020622078C00622D52046AFF300801EE03C
:10076000002E04DBB34502DD01A8805D00E03020EF
:10077000D4E901219047206A401C2062761CAAF12E
:1007800001005FEA000A0AD100F03EF8C068016883
:10079000405CD4E901219047206A401C2062281E59
:1007A000A5F10105DCDC07E0D4E9012118F8010B13
:1007B0009047206A401C2062381EA7F10107F3DC35
:1007C0002046AFF30080032011B041E601694A1CC6
:1007D00002610878704700B58FB0CDE90131002182
:1007E000059105497944CDE9031011466846FFF7A4
:1007F0000BFD0FB000BD0000E5FFFFFF0A6802F827
:10080000010B0A607047000000487047F0050020A7
:1008100030B5B0F10A024FEA900E71F100034EEAD2
:10082000817EB0EB0E0061EB91014FEA101E4EEAA3
:10083000017E10EB0E0041EB11114FEA102E4EEA33
:10084000016E10EB0E0041EB11214FEA104E4EEA03
:10085000014E10EB0E0041EB1141401841F1000137
:100860004FEAD00040EA41704FEAD10110EB800519
:100870004FEA810444EA907444EB01046D1944EB9F
:100880000404521BA3414FF0000348BF0A3200D5B5
:1008900030BD401C41F1000130BD00002DE9F041A8
:1008A0001F46044603260168072A01F4006004DBA2
:1008B00008B116A505E016A503E008B115A500E0EE
:1008C00015A521F010002060A069C01EA0610FB125
:1008D000401EA0612046AFF300804FB1D4E9012152
:1008E00038469047206A401C2062C01C206206E007
:1008F000206AFAE7D4E9012115F8010B9047761E2A
:10090000F8D22046AFF30080BDE8F0814E414E00A2
:100910006E616E00494E4600696E66002DE9F04733
:10092000814616468AB0354878440DC88DE80D00DA
:1009300032487844801C03AC0DC884E80D0041F6B1
:100940009B300844372190FBF1F290FBF1F5A5F1C3
:10095000800501FB12041B3C02D56442012000E02B
:100960000020DFF898A080460027FA44AAF1BE0ACA
:100970000EE0E0070AD03246684607EB4701012344
:100980000AEB810100F047FB8DE8070064107F1C33
:10099000002CEED1194F7F44AE3F19E0E80715D087
:1009A00007EB04100DF1180A90E80E008AE80E001B
:1009B000C068F04201D1981908903246012306A977
:1009C00003A800F028FB03AB83E807006D10641C4C
:1009D000002DE3D14FF0010332466946B8F1000F14
:1009E00003A802D000F002FB01E000F014FBC9E90B
:1009F0000001C9F808200AB0BDE8F087844A000069
:100A000000487047D00500207546FFF7F9FFAE4655
:100A100005006946534620F00700854618B020B50A
:100A2000FFF7CCFBBDE820404FF000064FF0000779
:100A30004FF000084FF0000B21F00701AC46ACE886
:100A4000C009ACE8C009ACE8C009ACE8C0098D46F3
:100A5000704710B50446AFF300802046BDE8104053
:100A6000FFF798BB4FF0013C50F8042B51F8043BC2
:100A70009A4221D1A2EB0C03934313EACC1317D172
:100A800050F8042B51F8043B9A4215D1A2EB0C0309
:100A9000934313EACC130BD150F8042B51F8043BC9
:100AA0009A4209D1A2EB0C03934313EACC13DBD097
:100AB0004FF00000704700BFD01A01BAB1FA81F1BF
:100AC00001F0180122FA01F0CB40C1F12001DBB2A4
:100AD000C0B2C01A2CFA01F3D11A914311EAC31122
:100AE000E6D170477047000001491820ABBEFEE711
:100AF000260002005FEA400C08BF91F0000F4FEAA9
:100B00008C234FEAC12243EA51514FEA1C5018BFCF
:100B100000F5F0404FEA300018BF41F000415FEAB5
:100B20006C5C00F02980BCF1FF3F08BF40F08040C2
:100B30007047130C06BF12044FF0100C4FF0000C5E
:100B4000130E04BF12020CF1080C130F04BF1201A4
:100B50000CF1040C930F04BF92000CF1020CD30FA4
:100B600004BF52000CF1010C11464FF00002A0F13D
:100B70001F00A0EB0C00704711F0004F08BF70473A
:100B800031F000413FF4D5AF0B0C06BF09044FF024
:100B9000100C4FF0000C0B0E04BF09020CF1080CF6
:100BA0000B0F04BF09010CF1040C8B0F04BF89006B
:100BB0000CF1020CCB0F04BF49000CF1010CCCF17D
:100BC0002003A0EB0C0022FA03F302FA0CF241EA34
:100BD000030100F10100704720F07F4C80EA030020
:100BE00023F07F47ACEB070303F57C5300F0004094
:100BF00003F1FF032DE980494FEA154B09B44FEA91
:100C0000144325EA0B4E24EA03480FF2042606EBB0
:100C1000132749083E785FEA320203FB0667C7F5EF
:100C2000000707FB06F64FEA54374FEAD64606F1AF
:100C3000020607FB066CCCF1005C4FEA1C472CEA6D
:100C4000074C07FB06F40CFB06F504EB15464FEAD0
:100C5000961634BF00204FF000404FEAD13706FB14
:100C600007FC4FEA1C4C0CFB0BF7D21B03FB0CF7E9
:100C700061EB07010CFB0EF7B0EB074072EB17427C
:100C80000CFB08F734BFA2EB0742B2EB074261EB63
:100C900017414FEA0C444FEA910706FB07FC4FEA65
:100CA0001C4C0CFB0BF7B0EBC74072EB573203FB4D
:100CB0000CF734BFA2EBC742B2EBC74261EB57312E
:100CC0000CFB0EF7B0EBC70072EB57720CFB08F78A
:100CD00034BFA2EBC702B2EBC70261EB5771039FAF
:100CE0004FEA816141EA921104EBCC044FEAD1371B
:100CF0004FEA826206FB07FC42EA90124FEA8060EC
:100D00004FEA1C4C0CFB0BF7D21B03FB0CF761EBFF
:100D100007010CFB0EF7B0EB074072EB17420CFB20
:100D200008F734BFA2EB0742B2EB074261EB174171
:100D30004FEA8C554FEA910704EB9C2406FB07FC15
:100D40004FEA1C4C0CFB0BF7B0EBC74072EB573271
:100D500003FB0CF734BFA2EBC742B2EBC74261EB17
:100D600057310CFB0EF7B0EBC70072EB57720CFB60
:100D700008F734BFA2EBC702B2EBC70261EB5771B1
:100D800015EB4C254FEA816141EA92114FEA8262EC
:100D90004FEAD13742EA901206FB07FC44F1000407
:100DA0004FEA80604FEA1C4C0CFB0BF7D21B03FB95
:100DB0000CF761EB07010CFB0EF7B0EB074072EB91
:100DC00017420CFB08F734BFA2EB0742B2EB074215
:100DD00061EB174115EB1C154FEA813141EA924155
:100DE0004FEA823242EA90424FEA80304FEA0C7674
:100DF00044F1000448EA03434EEA0B484FF0000E6A
:100E0000B2EB080C71EB030724BF624639464EEB88
:100E10000E0E4FF0000B0018524149414BEB0B0BEB
:100E2000B2EB080C71EB03077BF1000B24BF6246A9
:100E300039464EEB0E0E4FF0000B0018524149415F
:100E40004BEB0B0BB2EB080C71EB03077BF1000BC8
:100E500024BF624639464EEB0E0E51EA020718BF18
:100E600046F0010616EB0E7655F1000254F1000132
:100E700003D5BDE88901BDE80088BDE88901BDE86A
:100E80000048B619524141EB0101A3F1010370473B
:100E900080807F7E7D7C7B7A7978777676757473B7
:100EA000727171706F6E6E6D6C6C6B6A6A69686876
:100EB000676666656464636362616160605F5F5E0C
:100EC0005E5D5D5C5C5B5B5A5A5959585857575682
:100ED00056555555545453535252525151505050E7
:100EE0004F4F4F4E4E4D4D4D4C4C4C4B4B4B4A4A39
:100EF0004A4949494848484747474746464645457D
:100F000045444444444343434342424242414141B5
:100F1000002B9C4630D477002BD01CB54FEA370706
:100F200003B44FF010004FF01001BAF1000F06D0DB
:100F3000BCF1000FDCBF40F0080040F008014FF0AA
:100F400000000FBCBDE810400BF1010BBBF1010F1D
:100F500008BF5FEA170722BF12F1010211F1010178
:100F60004FF0004143F1000300F0004043EA00006D
:100F70007047F9D35708D0E746EA064613F1400F09
:100F80004FEA16461FDD13F1200FDFBF16430A4656
:100F9000002120335B42BED0C3F1200746EA06465B
:100FA00002FA07F74FEA164646EA0706C3F120079A
:100FB00022FA03F201FA07F721FA03F14FF00003D6
:100FC00042EA0702A7E746EA020646EA06464FEA71
:100FD000164646EA0106BCBF46EA0646360C4FF006
:100FE00000034FF000024FF0000194E72DE9804C20
:100FF0009A46934670B491E8380007C831EA400C2D
:1010000048BF34EA430C03D5FFF7E6FDFFF780FF46
:10101000F0BCBDE8008C2DE9804C9A46934670B434
:1010200091E8380007C810F0804F08BF13F0804FD8
:1010300003D100F005F8FFF76BFFF0BCBDE8008CB2
:1010400020F07F4780EA030023F07F4C07EB0C037E
:10105000A3F57C5300F00040A3F1FE0392F0000FD3
:1010600000F0B38095F0000F00F077802DE9014982
:101070004FEA11404FEA144621EA004800FB06FC03
:1010800024EA064708FB06F607FB08F800FB07F70B
:1010900018EB06484CEB164C4FEA124B18EB07487E
:1010A0004FEA15464CEB174022EA0B4E0BFB06FCB1
:1010B00025EA06470EFB06F607FB0EFE0BFB07F7BD
:1010C0001EEB064E4CEB164C4FF000061EEB074E87
:1010D0004CEB174B18EB0B0840F1000018EB0E0B14
:1010E00058EB000840F100008F1A4FF000013CBFA0
:1010F000C943661B14BFB5EB040C00213CBFC943B8
:10110000F61B4FEA17444EEA8E0E27EA04454FEAD3
:101110001C4704FB07622CEA074C05FB07F70CFB96
:1011200005F604FB0CFC16EB074642EB174216EBE8
:101130000C4642EB1C421BEB060658EB02024141F7
:1011400046EA9E0601D5BDE80189B619524141EB38
:101150000101A3F10103BDE801894FEA14454FEAFB
:10116000114724EA054621EA074C05FB07F406FB74
:1011700007F70CFB06F105FB0CFC11EB074144EBF8
:1011800017444FEA124711EB0C4144EB1C4422EA8E
:10119000074C05FB07F206FB07F70CFB06F605FB01
:1011A0000CFC16EB074642EB174216EB0C4642EBE3
:1011B0001C456A1854F1000148BF7047B6195241E6
:1011C00041EB0101A3F10103704795F0000F37D007
:1011D0004FEA11424FEA144721EA024624EA074C3B
:1011E00002FB07F106FB07F70CFB06F402FB0CFC05
:1011F00014EB074441EB17414FEA154714EB0C443D
:1012000041EB1C4125EA074C02FB07F506FB07F7FB
:101210000CFB06F602FB0CFC16EB074645EB1745EC
:1012200016EB0C4645EB1C42121951F1000148BF68
:101230007047B619524141EB0101A3F10103704718
:101240004FEA14454FEA114724EA054621EA074CC4
:1012500005FB07F106FB07F70CFB06F24FF0000653
:1012600005FB0CFC12EB074241EB174112EB0C4261
:1012700051EB1C4148BF7047921841EB0101A3F1AB
:101280000103704710B501F0E7F901F0D1F87020C3
:1012900000F0FFF801F0B6FAA82000F0FAF801F02B
:1012A000B1FA002000F0F5F801F0ACFA002000F0EF
:1012B000F0F801F0A7FA01F054FB0A2000F010F951
:1012C00001F0B6F8702000F0E4F801F09BFABE20BF
:1012D00000F0DFF801F096FA082000F0DAF801F0EB
:1012E00091FA002000F0D5F801F08CFA01F039FBFA
:1012F000BDE810400A2000F0F3B800002DE9F041ED
:10130000002501F0ADFA01F0B3FA082001F01FFB4F
:101310000024114F01F09CFA00F0FCF80026802117
:10132000384600F011FA00B1012646EA4500C5B280
:1013300000224021384600F00CFA00F0EBF8641C63
:10134000E4B2082CE6D301F093FA082001F0FFFA8A
:101350002846BDE8F0810000000C0140F0B587B0E0
:10136000002105468DF804108DF810108DF80C1032
:101370008DF814108DF808108DF804100E460C46E8
:1013800000F06CF8502000F0ABF840F2E45707E0B2
:10139000384601F0DCFA2046641CA4B2642803D26B
:1013A00000F04BF80006F3D401F042F8712000F091
:1013B00070F801F027FAFFF7A1FF8DF8040001F0A3
:1013C0008EFAFFF79BFF8DF8100001F088FAFFF707
:1013D00095FF8DF80C0001F082FAFFF78FFF8DF872
:1013E000140001F07CFAFFF789FF8DF8080001F086
:1013F00076FAFFF783FF8DF8040001F08CFA01F014
:10140000B0FA9DF810009DF80C10064341EA062042
:101410009DF8141041EA0020000928609DF814008E
:101420009DF8081041EA00209DF8041041EA0020D0
:10143000C0F31300686007B0F0BD10B500F0F8FF0E
:10144000712000F026F801F0DDF9FFF757FF0446A0
:1014500001F061FA01F085FA204610BD10B500F0E8
:10146000E7FF702000F015F801F0CCF9AC2000F097
:1014700010F801F0C7F9332000F00BF801F0C2F9C1
:10148000002000F006F801F0BDF9BDE8104001F0C1
:1014900068BA70B505468026002401F0E1F900F035
:1014A0002AF82E4202D001F0F1F901E001F002FA2F
:1014B00001F0CEF900F01FF86806641C050EE4B2D6
:1014C000082CEAD301F0CCF9082001F040FA01F031
:1014D000CFF9BDE87040082001F039BAFEE7704747
:1014E00010B503464FF47A7402E0204601F02FFA5B
:1014F0005B1EFAD210BD00B5012000F01DF80120DE
:1015000000F01AF8012000F017F801205DF804EB54
:1015100000F012B800B5012000F00EF8012000F034
:101520000BF8012000F008F8012000F005F8012078
:101530005DF804EBAFF30080401EFDD2704772B639
:10154000FEE7000070B5044600F008F90546601C8F
:1015500002D004480078044400F000F9401BA04287
:10156000FAD370BD000000202DE9F84FDFF8B891E4
:101570000024A9F1040B23460F2709F1040AABF15B
:10158000040EC9E00125A5402A40AA427DD1674E3C
:10159000D1F804C0ACEB0608B44532D014DCBCF181
:1015A000030F3AD009DCBCF1000F2AD0BCF1010FC7
:1015B0001CD0BCF1020F31D11DE0BCF1110F17D0CE
:1015C000BCF1120F2AD119E0B8F5881F19D006DC3A
:1015D000B8F5803F15D0B8F5801F1FD111E0B8F5E0
:1015E000001F0ED0B8F5041F18D10AE0CB6815E033
:1015F000CB681B1D12E0CB6808330FE0CB680C33BF
:101600000CE08B682BB1012B4FF0080303D0456130
:1016100004E0042302E0056100E00023FF2A01D872
:10162000064601E000F104064FEA840501D9A5F160
:101630002005D6F8008007FA05FC28EA0C0803FA12
:1016400005F548EA0508C6F800804D68ED0062D54A
:10165000374DAE6946F00106AE61AD6924F0030670
:1016600005F001050095334D06EB050CDCF808503C
:10167000A607360F07FA06F825EA0805DFF8B8804E
:10168000404503D14FF0000817E044E0DFF8AC809C
:10169000404502D14FF001080FE0DFF8A48040453B
:1016A00002D14FF0020808E0DFF89880404502D1EF
:1016B0004FF0030801E04FF0040808FA06F848EA82
:1016C0000508CCF808804D68D9F80060ED024D4659
:1016D00001D5164300E096432E604D68DAF80060AD
:1016E000AD02554601D5164300E096432E604D6885
:1016F000DBF80060AD035D4601D5164300E096437C
:101700002E604D68DEF80060ED03754601D5164386
:1017100000E096432E60641C0D682A46E5407FF485
:1017200031AFBDE8F88F000008040140000011103F
:10173000001002400000014000080140000C014080
:1017400000100140001401408068084000D00120D2
:1017500070470AB1016170470904FBE701488068DE
:10176000704700000000002070B5040025D094F8F8
:101770003D00002520B984F83C50204600F04EF989
:10178000242084F83D002068016821F001010160F7
:101790002068016841F4004101602068016821F47B
:1017A0000041016000F0A6FA4D4A6168914201D8FB
:1017B0004C4900E04C49884201D2012070BD4B49A0
:1017C0002368B0FBF1F15E6826F03F060E435E60D1
:1017D0006368934206D94FF4967359434FF47A7372
:1017E000B1FBF3F12368491C1E6A26F03F06314322
:1017F00019626168914210D84900401EB0FBF1F2B5
:10180000521CC2F30B02042A01D2042022E0B0FBD6
:10181000F1F0401CC0F30B001CE0A268F2B301EB36
:10182000C10303EB0116431EB3FBF6F35B1C43F449
:1018300080431B0549D092B301EBC10202EB0111B9
:10184000401EB0FBF1F0401CC0F30B0040F48040A0
:1018500040F400402168CA694CF6FF739A43104374
:10186000C861D4E9071001432068026822F0C00271
:1018700011430160D4E9030101432068826848F202
:10188000FF339A4311438160D4E90501084321687D
:10189000CA6822F0FF021043C86001E00EE016E0C3
:1018A0002068016841F0010101602564202084F86E
:1018B0003D00256384F83E50002070BD01EB4106D9
:1018C000431EB3FBF6F35B1CB3E70120C2E701EB59
:1018D0004101401EB0FBF1F0401CC0F30B00B7E724
:1018E000A086010080841E0000093D0040420F00D8
:1018F0002DE9F84F1F4690468A460446DDF82890A9
:10190000FFF72CFF054694F83D0020287FD11923CE
:10191000012240492046009500F0CCFD002876D1F8
:1019200094F83C00012872D0012084F83C00206823
:101930000168C90703D1016841F001010160206815
:10194000016821F400610160212084F83D0010202D
:1019500084F83E0000262664C4F824806785608DE4
:1019600020852D48E0622B464A465146204600F02D
:1019700011FD90B9206841698069009036E02A46DF
:101980004946204600F03CFE50B1206C042804D1AA
:101990002068016841F4007101600120BDE8F88F02
:1019A000606A216800780861606A401C6062618D2D
:1019B000491E6185218D491E89B22185226853699E
:1019C000DB435B070BD451B100781061606A401CA7
:1019D0006062608D401E6085208D401E20852A46F5
:1019E0004946204600F03BFD0028CED1208D00283E
:1019F000C5D154F83D0B016841F40071016020200D
:101A000004F81E09E67766770020C7E7FFE70220A3
:101A1000C4E70000020010000000FFFF30B585B0F1
:101A2000002100910191029103911E4D03681E4C0B
:101A3000122103221D48AB4216D1A36943F00803CB
:101A4000A361A369039203F008030493C023CDE9C3
:101A500000316946FFF788FDE06940F40010E0615D
:101A6000E06900F4001019E0114DAB4217D1A369F1
:101A700043F00803A361A369039203F008030493EE
:101A80004FF44063CDE900316946FFF76DFDE06931
:101A900040F48000E061E06900F48000049005B04B
:101AA00030BD00000054004000100240000C014016
:101AB00000580040024881680278114481607047F4
:101AC00000000020074810B5016841F010010160D6
:101AD000032000F067F80F2000F006F800F024F86B
:101AE000002010BD0020024070B50D4D04464FF49B
:101AF0007A712878B1FBF0F00A490968B1FBF0F07F
:101B000000F0CEFA48B9102C07D200222146501E10
:101B100000F028F800206C6070BD012070BD00004E
:101B2000000000200C0000200C4808B5816941F03D
:101B300001018161816901F001010091C16941F0F8
:101B40008051C161C06900F0805000900448416834
:101B500021F0E06141F00071416008BD00100240D9
:101B600000000140F0B40E4B1B680C46C3F3022387
:101B7000C3F10705042D00D90425191D072901D239
:101B8000002300E0DB1E012606FA05F1491E214074
:101B900099409E40761E16403143F0BC01F027B8B4
:101BA0000CED00E0064900F0070208684FF6FF035D
:101BB000184040EA0220034A1043086070470000C2
:101BC0000CED00E00000FA052DE9F0470F46050096
:101BD00061D0434E306800F00700B84209D2306847
:101BE00020F0070038433060306800F00700B8424A
:101BF00051D128683B4C810712D5400703D5606856
:101C000040F4E06060602878000703D5606840F425
:101C1000605060606068A96820F0F0000843606070
:101C20002878C00728D06868012810D021680228C9
:101C300010D0890700292EDA616821F003010143E1
:101C40006160FFF78BFD804641F288390DE0216825
:101C50008903EFE78901EDE7FFF780FDA0EB0801BD
:101C6000494502D90320BDE8F0876068696800F043
:101C70000C00B0EB810FEFD1306800F00700B842E4
:101C80000BD9306820F0070038433060306800F02E
:101C90000700B84201D00120E5E72878400705D5C4
:101CA0006068E96820F4E060084360602878000715
:101CB00006D56068296920F4605040EAC100606080
:101CC00000F038F86168084AC1F30311515CC8405C
:101CD0000649086006480068FFF706FF0020C2E7D3
:101CE0000020024000100240444200080C00002086
:101CF000040000200448054900684968044AC1F30B
:101D00000221515CC84070470C00002000100240C6
:101D1000544200080448054900684968044AC1F370
:101D2000C221515CC84070470C00002000100240E6
:101D3000544200080E4A51680E4801F00C03042B6F
:101D400011D0082B0FD10C48C1F38343C903C05CE9
:101D50000AD55168084AC1F34041921E515C054AB8
:101D60005043B0FBF1F0704704494843704700000E
:101D70000010024000127A003442000800093D00C1
:101D80002DE9F84F040070D02078C04DC00749D02D
:101D90006868C0F38100012807D06868C0F381003B
:101DA000022809D16868C00306D52868800339D5A0
:101DB00060680028E7D035E06068B0F5803F0BD060
:101DC00010B1B0F5A02F11D0286820F48030286021
:101DD000286820F4802002E0286840F480302860E1
:101DE000606890B1FFF7BAFC06460AE0286840F444
:101DF00080202860F0E700BFFFF7B0FC801B64285C
:101E000073D828688003F7D50CE0FFF7A7FC0646D7
:101E100005E000BFFFF7A2FC801B6428F0D828680B
:101E20008003F7D420789A4E80074FF001094FF0D5
:101E3000000839D5686810F00C0F07D06868C0F347
:101E40008100022809D16868C00306D42868800789
:101E500014D52069012808D110E02069B0B1C6F876
:101E60000090FFF77BFC074605E00AE1FFF776FCF0
:101E7000C01B0228C4D828688007F7D52868616984
:101E800020F0F80040EAC10028600DE0C6F80080AC
:101E9000FFF764FC074604E0FFF760FCC01B022864
:101EA00023D828688007F7D4207800072CD57948F4
:101EB000A169D9B1C0F80090FFF750FC074604E0D3
:101EC000FFF74CFCC01B02280FD8686A8007F7D5C3
:101ED00071484FF4FA510068B0FBF1F0009000BF78
:101EE0000098411E0091FAD20EE080E0C0F8008018
:101EF000FFF734FC074604E0FFF730FCC01B022864
:101F000075D8686A8007F7D42078400760D5E869FB
:101F10000027C00008D4E86940F08050E861E86913
:101F2000012700F0805000905C480168C90513D477
:101F30000168834641F480710160FFF70FFC82461F
:101F400006E000BFFFF70AFCA0EB0A0064284ED8A9
:101F5000DBF80000C005F5D5E06801280AD008B11B
:101F6000052813D0286A20F001002862286A20F092
:101F7000040002E0286A40F001002862E06841F2B3
:101F8000883B98B1FFF7EAFB82460BE0286A40F0F5
:101F900004002862EEE700BFFFF7E0FBA0EB0A01B8
:101FA00059455AD8286A8007F6D50CE0FFF7D6FBCA
:101FB000824605E0FFF7D2FBA0EB0A0159454CD859
:101FC000286A8007F6D41FB1E86920F08050E861E4
:101FD000E06988B36968C1F38101022944D002280D
:101FE000C6F8608004D0FFF7B9FB044638E034E05F
:101FF000FFF7B4FB074604E0FFF7B0FBC01B022865
:102000002BD828688001F7D4206AB0F5803F05D12D
:102010006868A16820F4003008436860D4E90801CA
:102020000843696821F4741108436860C6F8609039
:10203000FFF794FB044606E025E000BFFFF78EFBA8
:10204000001B022809D828688001F7D51BE000BFD3
:10205000FFF784FB001B022802D90320BDE8F88F9C
:1020600028688001F4D40EE00128F7D06868226A5D
:1020700000F48031914204D1616A00F4701088420A
:1020800001D00120EAE70020E8E70000001002404C
:1020900000004242800442420C00002000700040D8
:1020A00010B5401EB0F1807F01D3012010BD4FF06C
:1020B000E02460610F21601700F099FD0020A0610D
:1020C00007202061002010BD70B590F83C20012A47
:1020D00026D0012480F83C40022280F83D2003688D
:1020E0005A689D6822F070060A6832435A600D4BA8
:1020F00002689A4208D0B2F1804F05D00A4B9A424A
:1021000002D00A4B9A4204D1496825F08003194352
:10211000916080F83D40002180F83C10084670BD79
:10212000022070BD002C0140000400400008004067
:1021300010B5040003D094F83D0010B107E0012071
:1021400010BD002084F83C00204600F01FF802205B
:1021500084F83D00211D206800F048FC012084F82F
:10216000460084F83E0084F83F0084F8400084F87C
:10217000410084F8420084F8430084F8440084F865
:10218000450084F83D00002010BD000008B500683F
:102190000649884208D10648816941F4006181619D
:1021A000806900F40060009008BD0000002C014030
:1021B0000010024070B5044690F83C00002501284C
:1021C00017D0012684F83C60022084F83D00206886
:1021D000826822F0770222F47F42826008685028E9
:1021E00038D00DDC20284FD005DC90B3102811D159
:1021F0004AE0022070BD302846D040280AD13BE09A
:1022000060282FD070280DD0B0F5805F03D0B0F5D6
:10221000005F12D0012584F83D60002084F83C0066
:10222000284670BDCB68D1E90121206800F01AFC76
:102230002068816841F0770109E0CB68D1E901218C
:10224000206800F00FFC2068816841F480418160C3
:10225000E1E719E0CA684968206800F015FC5021E0
:10226000206806E0CA684968206800F01EFC60210A
:10227000206800F001FCCEE7CA684968206800F0D9
:1022800003FC40212068F4E7226801461046F0E78D
:1022900070B5040004D094F84100002510B106E0A8
:1022A000012070BD84F84050204600F023F824201F
:1022B00084F841002068C16821F40051C1602046C3
:1022C00000F024FC2068016921F49041016120683C
:1022D000416921F02A0141612068C16841F400513F
:1022E000C1606564202084F8410084F84200656381
:1022F000002070BD30B585B0002400940194029494
:10230000039400681449884224D11448816941F437
:1023100080418161816901F480410491816941F0CA
:102320000401816180690E4D00F0040004904FF4B7
:102330000070009002200190032003906946284617
:10234000FFF712F92815CDE90004694628460294E2
:10235000FFF70AF905B030BD003801400010024017
:1023600000080140FEE701684A69D24352050FD4D4
:102370006FF480624A61002140F8301F20224273CE
:102380008173026942F00402026101730120704707
:1023900000207047F8B50446C06A1E460D46174631
:1023A000082807D0012805D010F5803F02D0206B07
:1023B000122804D12068016841F48071016013463D
:1023C00000224FF001112046009600F073F840B152
:1023D00020680068C00502D54FF400702064032017
:1023E000F8BD2069B0F5804F0ED00620216800EAC4
:1023F000D51040F0F000086133463A460B492046BC
:1024000000F0A0F878B902E005F0FE0000E0E8B2C4
:1024100021680861054933463A46891F204600F085
:1024200091F80028DCD00120F8BD00000800010070
:1024300010B500F02BFA082000F089FA00F008FA35
:10244000082000F084FA00F035FA082000F07FFA46
:1024500000F006FABDE81040082000F078BA70B528
:1024600016460D4604461EE02046FFF77CFF08B1E5
:10247000012070BD681C16D0FFF770F9801BA842C0
:1024800000D885B920684069C04340070BD50020BB
:1024900044F8300F20216173A073216941F02001BD
:1024A00021612073E4E720684069C0434007DBD422
:1024B000002070BD2DE9F047984617460D460446AA
:1024C000C1F30746DDF820902AE000BFB8F1FF3FD6
:1024D00026D0FFF743F9A0EB0901414502D8B8F136
:1024E000000F1DD12068012E16D0806925EA00005A
:1024F0000004000C12D00020B84211D1002044F892
:10250000300F20216173A073216941F02001216106
:1025100020730120BDE8F0874069E7E70120EBE781
:102520002068012E0AD0806925EA00000004000C12
:1025300006D00020B842C9D00020EBE74069F3E79D
:102540000120F7E72DE9F047984616460D46044668
:102550004FF000094FF0200AC1F3074723E020683D
:102560004069C043400515D42068016841F40071FA
:10257000016021686FF480604861C4F8309084F88D
:102580003DA084F83E90216C41F00401216484F860
:102590003C9021E0701C06D0FFF7E0F8A0EB0800AB
:1025A000B04203D816B1012F1FD021E02068012FBF
:1025B00015D0806925EA00000004000C18D000BF87
:1025C00044F8309F84F80DA084F80E90216941F002
:1025D0002001216184F80C900120BDE8F08740695A
:1025E00025EA00000004000CEAD12068406901E0FF
:1025F0002068806925EA00000004000CAFD1ECE7F8
:1026000070B516460D4604461EE02046FFF7ABFEA9
:1026100008B1012070BD681C16D0FFF79FF8801B21
:10262000A84200D885B920684069C04300060BD590
:10263000002044F8300F20216173A073216941F01C
:10264000200121612073E4E720684069C04300064F
:10265000DBD4002070BD00002DE9FF410124802063
:10266000CDE900040D4E0325694603953046FEF77B
:102670007BFF0122D70339463046FFF76AF8402036
:10268000CDE90004694603953046FEF76DFF01224F
:1026900039463046FFF75DF8BDE8FF81000C014088
:1026A0000D4808B5816941F020018161816901F01F
:1026B00020010091816941F008018161816901F087
:1026C00008010091816941F004018161806900F095
:1026D0000400009008BD0000001002400D4810B535
:1026E0000B4901600C49416000214FF48042816038
:1026F000C0E9031241618161C1610162FFF734F8F1
:10270000002803D0BDE81040FEF719BF10BD00003F
:102710000054004018000020A08601000D4810B5AC
:102720000B4901600C49416000214FF480428160F7
:10273000C0E9031241618161C1610162FFF714F8D0
:10274000002803D0BDE81040FEF7F9BE10BD000020
:10275000005800406C000020A086010010B586B033
:10276000002417480094019402940394049413499C
:10277000059401604721C0E901144FF6FF71C0E9DB
:10278000031444618461FFF7D3FC08B1FEF7D7FE60
:102790004FF48050009069460948FFF70BFD08B1DF
:1027A000FEF7CDFE049404A905480594FFF78CFCC0
:1027B000002801D0FEF7C3FE06B010BD002C01407A
:1027C000C00000200C4810B50A4901604FF4E13107
:1027D0004160002181600C22C160C0E90412816166
:1027E000C161FFF755FD002803D0BDE81040FEF79A
:1027F000A6BE10BD0038014008010020FEE7FEE73C
:102800007047000070B5002400F02AF800F030F89E
:10281000082000F09CF800F01BF8082000F097F862
:102820000A4D01E0641CA4B280212846FEF78CFF0B
:1028300008B1642CF6D3642C06D000F011F80820FF
:1028400000F085F8012070BD002070BD000C014033
:10285000012240210148FEF77CBF0000000C01402E
:10286000002240210148FEF774BF0000000C014027
:102870001FB500200190802000900320039069463E
:102880000148FEF771FE1FBD000C01401FB501207D
:102890000190802000900320054C0390694620465B
:1028A000FEF762FE012280212046FEF752FF1FBD87
:1028B000000C01401FB501200190802000900320F2
:1028C000054C039069462046FEF74EFE002280210B
:1028D0002046FEF73EFF1FBD000C0140704710B5BB
:1028E000FFF7BEFF082000F032F8FFF7E3FF0820F3
:1028F00000F02DF8FFF7ACFF082000F028F8FFF7F4
:10290000AFFF082000F023F8FFF7B2FFBDE810404A
:10291000082000F01CB810B5FFF7A2FF082000F057
:1029200016F8FFF7B3FF082000F011F8FFF790FF4B
:10293000082000F00CF8FFF793FF082000F007F8DC
:10294000FFF7B8FFBDE810400820AFF3008000B5E6
:10295000801E020004D00120FEF7EEFD521EFAD1C7
:1029600000BD10B5FFF7A6FF0820FFF7F0FFFFF747
:102970006FFF0820FFF7EBFFFFF788FFBDE810406F
:102980000820FFF7E4BFFFF795B830B58FB02821D6
:102990006846FDF7E2FC14210AA8FDF7DEFC0121E0
:1029A0000804CDE900100024029402250491CDE929
:1029B00007504FF4E01009906846FFF7E1F908B1BD
:1029C00072B6FEE70F20CDE90A054FF48060CDE92D
:1029D0000C4002210AA80E94FFF7F6F8002801D057
:1029E00072B6FEE70FB030BD70470000F0B5026868
:1029F000194B1A4C1A4D4FF08047984205D0B842F7
:102A000003D0A04201D0A84203D122F070064A6848
:102A10003243984205D0B84203D0A04201D0A84228
:102A200003D122F44074CA6822434C6922F0800228
:102A3000224302608A68C2620A688262984201D1B7
:102A400009690163012141610169C90703D0016975
:102A500021F001010161F0BD002C014000040040A3
:102A60000008004010B5846842EA032224F47F4441
:102A70000A432243826010BD826822F070020A433A
:102A800042F007018160704710B5036A046A24F0C0
:102A900001040462846924F0F00444EA021423F07F
:102AA0000A020A438461026210BD10B5036A046A17
:102AB00024F010040462846923F0A00324F4704419
:102AC00044EA023243EA01118261016210BD000052
:102AD0000D4900220B685A620A68136843F001032B
:102AE000136009684A6A8242FCD3086A41F21112F3
:102AF000104207D1086A9210104203D1086820F0F2
:102B00000100086070470000C000002070B5044656
:102B100000680169E26821F44051114301612169B3
:102B2000A0680843616908432168CA6841F20C63E0
:102B30009A430243CA6020684169A26921F4407146
:102B4000114341611E492068884202D1FFF7E2F833
:102B500001E0FFF7CFF800EBC00101EB0012606865
:102B600064218000B2FBF0F3B3FBF1F36FF01806C1
:102B70007343B2FBF0F5B2FBF0F605EB83053223AD
:102B800003EB0515B5FBF1F5B6FBF1F605F0F00525
:102B900005EB0615B2FBF0F6B2FBF0F0B0FBF1F07E
:102BA0006FF01802504306EB800003EB0010B0FBFF
:102BB000F1F0216800F00F002844886070BD00002B
:102BC00000380140FEE7490050EAC12018BF042048
:102BD0004A0D18BF40F0010040F2FF72B2EB515FA6
:102BE00008BF40F00200012808BF05207047090710
:102BF000090E002804DB00F1E02080F80014704783
:102C000000F00F0000F1E02080F8141D704730380C
:102C10000A2801D20120704700207047AAB0002086
:102C200027904FF4FA7428902046FEF759FCFEF7DF
:102C300049FFFFF7AAFEFFF733FDFFF76FFDFFF730
:102C4000C1FDFFF74BFDFFF789FDFEF71BFB20469B
:102C5000FEF746FC684600F01DF900F09DF864425E
:102C60004FF47A7527A8FEF779FB27984FF47A710D
:102C70004843000D259028984900484304EB105024
:102C800026902846FEF75EFCDDE9251000F002F8EC
:102C9000E8E700002DE9F041ACB00C4601F0FCF98A
:102CA00006460F46204601F0F7F9DFF8D4800446C7
:102CB0000D46002243463046394601F095F802465B
:102CC0000B4630A127A8FDF78BFA00224346204689
:102CD000294601F089F802460B462AA129A8FDF7EA
:102CE0007FFA02A800F0D6F802A800F0EDF8274914
:102CF00002A800F022FA102425482346CDE900401E
:102D00000022214602A800F0D1F9214D10234035C0
:102D10000022202102A8CDE9004500F0C7F91DA33B
:102D20001022302102A800F0B1F9A5F12000CDE970
:102D3000004010232022194602A800F0B7F92022F3
:102D40001023114602A8CDE9004500F0AFF930226A
:102D500010A3114602A800F099F927AB10223721E1
:102D600002A800F09BF929AB3022372102A800F01D
:102D700095F902A800F0D8F92CB0BDE8F081000068
:102D800000002440252E3266000000005C4200084E
:102D9000724100083A000000F0B5A7B002A800F0A8
:102DA00079F802A800F090F8374902A800F0C5F9B8
:102DB000102436482346CDE900400022214602A8CF
:102DC00000F074F9314D102340350022202102A873
:102DD000CDE9004500F06AF92DA31022302102A8A8
:102DE00000F054F9A5F12000CDE900401023202285
:102DF000194602A800F05AF920221023114602A811
:102E0000CDE9004500F052F9302221A3114602A875
:102E100000F03CF92035102300223A2102A8CDE928
:102E2000004500F043F905F12006CDE900461023E6
:102E300000224A2102A800F039F905F14007CDE946
:102E40000047102300225A2102A800F02FF9102376
:102E500020223A2102A8CDE9004500F027F9CDE96A
:102E60000046102320224A2102A800F01FF9CDE9D4
:102E70000047102320225A2102A800F017F902A8C7
:102E800000F052F927B0F0BD5C4200087241000822
:102E90003A00000010B50446084B094A094900F001
:102EA00093F9204600F0DFFC0021204600F0EBFC07
:102EB0002046BDE8104000F007B80000813C000843
:102EC00029390008D051000801680A7C90F83810B0
:102ED000406B5143C900FDF71EBA2DE9F04104468D
:102EE00090F870001F4615460E4630B1012809D0F3
:102EF00002280CD0032815D10FE0E16D2046884749
:102F0000284408E0E16D20468847301A09E0E16D69
:102F100020468847281A85B204E0E16D204688479C
:102F2000304486B22846A4F86460A4F866003946A6
:102F30000025204600F03EFB010003D0204600F0B3
:102F400069FA85B22846BDE8F08100003FB581B03E
:102F5000044690F88C00089900283AD0BDF810007B
:102F6000002836D0012811D9022902D0032907D020
:102F70000CE0BDF80820101A401CADF8080005E070
:102F8000BDF80C20101A401CADF80C0011F0010522
:102F900021D0B4F84810BDF80800814219D8B4F81F
:102FA0004A10814215D9B4F84E30B4F84C2004A927
:102FB0000DF10C0000F0A0F900280AD00095206B5C
:102FC000BDF81030BDF80C208568BDF8081020460B
:102FD000A84705B030BDB4F84C10BDF80C008142D4
:102FE000F7D8B4F84E108142F3D9B4F84A30B4F8A7
:102FF000482004A902A8DDE72DE9FF4F81B090F831
:103000009270DDF838901D46884606469FB1002034
:10301000834603984146401C80B2009008EB0500AF
:1030200083B23046039A00F067F800282BD00124C1
:103030004FF0000A23E00120EAE700BF99F8000002
:10304000204202D086F8927004E096F8910048B9C8
:1030500086F892B00123CDF800A041463046039A8D
:10306000FFF774FF08F101001FFA80F8600010F00C
:10307000FF0402D1012409F101096D1EADB2002D3A
:10308000DCD186F8927005B0BDE8F08F30B4024C08
:10309000446030BC00F05DB9ED38000830B4024C3B
:1030A000446030BC00F055B92B3D00082DE9F84FC5
:1030B0008246DDE90A57D81DC0F3CC08501980B20A
:1030C0001C460090081983B216468946504600F007
:1030D00013F800280ED00BE02346324649465046EE
:1030E0000097FFF789FF761C6D1E4744B6B2ADB25C
:1030F000002DF1D1BDE8F88F70B50D461E4604468F
:10310000B0F84E10B0F84C00049B00F0B0FA002864
:1031100009D0B4F84A10B4F8480033462A46BDE84E
:10312000704000F0A4BA70BD10B5044600F02FFB4B
:103130002046BDE8104000F09EBB10B50446806DEF
:10314000884209D004F17400A16500F0EBFA204632
:10315000BDE8104000F054B810BD00000149C16541
:1031600070470000C93300080021A0F85010A0F8F3
:1031700054104FF6FF71A0F85210A0F85610016BD2
:103180004968084770B5044600250498A565E362C0
:10319000616384F8382084F8395084F86D5084F8DD
:1031A0009150012184F8921084F8931020630168F3
:1031B000204688472046FFF7D7FF2046FFF7CEFF7F
:1031C00084F8705070BD00007CB50C460093134627
:1031D0000546084A084900F05EFB01A800F09CFA89
:1031E0000146064B00949DF804202846FFF7CAFFCD
:1031F0007CBD0000513A0008793B00088936000880
:1032000010B5816D00291AD090F9813080F88E3088
:1032100090F9822080F88F2090F88D1000290ED030
:1032200001290DD090F97E4090F980100C449C4209
:1032300001DD80F88E408A4201DD80F88F1010BDDC
:1032400090F983108B4201DA80F88E1090F9841087
:10325000F1E72BB1012B05D0022B06D0104402E080
:10326000084400E0801A80B27047401AFBE72BB197
:10327000012B05D0022B06D0401A02E0104400E0DA
:10328000084480B27047801AFBE738B50446B0F8AE
:1032900056000090B4F85230B4F85420B4F85010EE
:1032A0002046FFF729FF18B3012084F88C00B4F8FA
:1032B0004810B4F85000814201D2A4F84800B4F894
:1032C0004A10B4F85200814201D9A4F84A00B4F877
:1032D0004C10B4F85400814201D2A4F84C00B4F868
:1032E0004E10B4F85600814201D9A4F84E0038BD02
:1032F000002084F88C0038BD30B504880D88254442
:10330000ADB2AC4205D99C4202D25D1EADB200E026
:1033100014469C4201D2954201D8002030BD94420F
:1033200000D214469D4200D91D460480281B088007
:10333000012030BD38B5C58F049C0094521BC46A6F
:1033400092B2A04738BD38B5049C0094FFF7F2FF55
:1033500038BD2DE9F0471C4691468846064600F0E8
:10336000E0FC00254FF6FF777268217830469047E1
:103370000346B84225D0641CA3F57F40FE38F3D045
:103380004A4641463046FFF7A8FD96F8701031B125
:10339000012907D0022908D003290FD10AE008EB40
:1033A000000104E009EB000106E0A8EB00011FFAB0
:1033B00081F803E0A9EB00011FFA81F9284485B2E6
:1033C000D2E72846BDE8F0870020704710B50C46CC
:1033D00000F006F80122641EA240801A40B210BD1F
:1033E00030B50568047B2A78E2406318DBB2082B0D
:1033F00009D36D1C05602D78C4F10804A540154360
:10340000083BEAB2DBB201248C40641E1440037313
:10341000204630BD2DE9F843054600F1600400F078
:103420000CF915F96B6F2046E97BFFF7CFFF81465A
:10343000297C2046FFF7CAFF0746697C20466B3D82
:10344000FFF7C4FF804694F90A00002857DDF01901
:10345000404247B2237CA0883A464946FFF7F9FE2E
:10346000A080237C3A46E0884946FFF700FFE080D1
:10347000A188277C02460B4637B1012F0AD0022FC4
:1034800040D0032F0FD146E094F90A7030443B44FA
:103490009BB207E0891B491C94F90A705B1C89B236
:1034A0009BB2384480B200902846FFF725FE30B327
:1034B0000020207284F8090095F876102046FFF766
:1034C0008FFF814695F877102046FFF789FF074662
:1034D00000224946284600F027F8012239462846AE
:1034E00000F022F801212046FFF77AFF0028EFD1F3
:1034F00094F90900B042DFDBA07B85F892004046DA
:10350000BDE8F88394F90A705B1CC91B491C89B299
:103510009BB2921B04E094F90A7033449BB2D21B15
:10352000521C92B2401CBDE72DE9F74F84B00D4606
:10353000049C94F8687094F869806034A07AC01B89
:10354000C6B20196B54200D201954FFA88F279B21F
:10355000A088B4F806B0237C92468946FFF779FE2E
:103560000290237C524649465846FFF780FE0246A9
:10357000069808B1A17B02E0607B50B9E17B04981A
:1035800080F89210207C0090DDE901310498FFF76B
:10359000DDFCB54207D3A81BC5B208F10100002726
:1035A00000F0FF08CAE77819207284F8098007B094
:1035B000BDE8F08F70B50D460146806D1730FF2DC8
:1035C00010D8612D02D3B1F8881003E0412D02D349
:1035D000B1F886100844417819B30278AA42F9D1AB
:1035E000801C70BDB1F88A100C18264600213046A8
:1035F00000F019F804440221304600F014F8361D9A
:10360000A842F3D34FF6FF72207802EA00216078D7
:10361000084306D0A84201D1E01C70BDA078044444
:10362000F2E7002070BD08444FF6FF720178407841
:1036300002EA0121084480B2704730B5054600F126
:10364000600401660020207315F8781F2046FFF7FC
:10365000C7FEA07269782046FFF7C2FEE072A87E1E
:10366000A07310B10020E07330BD0120FBE78A4257
:1036700005D2834201D89A4203D901207047834280
:10368000F9D8002070470000F0B502F007060124C9
:10369000B440002590F892E0E7B2DDF814C02C4663
:1036A000BEF1010F01D83D4600D03C46076822F02C
:1036B0000702BCF1000F3F7C07FB02F7BAB2476B71
:1036C0003A44114409D108785B1E284360401B042A
:1036D00001F8010B1B0CF6D1F0BD0A78761C2A43C9
:1036E0006240A3F101030A7016F007069BB206D0F0
:1036F0006A06150E6206140E002BEED1F0BD428F45
:10370000114490F89220012A03D800BF4FF0010520
:10371000F2D04FF00104EFE7082101700048704734
:103720005001002070B50546087828704878687008
:103730008878A870C878E870087928714879687125
:1037400088790C46A871E079E871207A2872607A4D
:103750006872A07AA872E07AE872207B2873607B96
:103760006873A07BA873E07BE873207C2874112128
:103770002046FFF758FF688213212046FFF753FFCA
:10378000A88215212046FFF74EFFE88270BD2DE983
:10379000F843064690F8387090F8395000680024D5
:1037A0004FF6FF7890F81190316830462A460B7C2E
:1037B000716B04FB03FC1FFA8CFC08EACC0C61441F
:1037C0000091002100F040F8641C6D1CE4B2EDB2E1
:1037D000BC4201D24D45E7D3BDE8F883F0B590F87F
:1037E00038204FF6FF75036805EAC2018187197C0E
:1037F00005EAC101418790F8394005EAC401C18753
:103800005E7CA718B74201D9321B92B205EAC20208
:1038100020F8401F11444180998A8180D98AC18053
:10382000F0BDFFF7DBBF0021A0F84810B0F844104E
:10383000A0F84A10B0F84010A0F84C10B0F84210B0
:10384000A0F84E10FFF721BD1CB58DF805108DF8BE
:103850000620049C8DF804300094012284686B4695
:103860000F21A0471CBD30B484680023A44630BC9F
:103870001A460A21604730B484680023A44630BC4D
:103880001A461021604730B484680023A4460A46D3
:1038900030BC0B2160472DE9F04115460E46044629
:1038A000069F00F009F86761A660C4E9035320464B
:1038B000BDE8F04100F012B8002140F8081B064AAC
:1038C000026042608260C260C17681770161FF213F
:1038D000017780F8201070477D3C000830B4846880
:1038E0000023A44630BC1A4609216047080001D0D5
:1038F0000A2801D14FF6FF70704730B404690023E5
:10390000A44630BC1A461921604713B50122046948
:1039100001AB1721A0471CBD30B404690023A446A5
:1039200030BC1A461821604738B5184818290DD000
:1039300004DC142907D0172923D10AE0192916D04D
:1039400020291ED11FE0FEF7E9FE1CE000210170D6
:1039500019E00F4C08E000BF017813F8015B6554D3
:10396000491C521E0170D2B2002AF5D10BE04FF46F
:103970007A7100910378064A78210648FDF7B8FF6E
:1039800008B1002038BD012038BD0000160000201D
:10399000500500206C00002030B4C4680023A44609
:1039A00030BC1A461921604730B4C4680023A446CD
:1039B0000A4630BC1621604730B4C4680023A446D0
:1039C0000A4630BC1521604730B4C4681346A4468B
:1039D0000A4630BC17216047F8B50C464FEA00058F
:1039E00014F8011B182924D00EDC152919D016292A
:1039F00017D0172923D120788DF800006A460121BD
:103A00002846FFF7E1FF0AE0192912D0FE2916D156
:103A100022788DF800202921284600F066F9641CE0
:103A2000DEE722788DF80020EE6800232846B047B4
:103A3000F5E70023EE681A462846B047D0E7F8BD00
:103A400030B4C4680023A44630BC1A46182160472D
:103A50002DE9F041DFF8B08014460646A1F11402CA
:103A6000002798F800001D46062A4AD2DFE802F037
:103A70002F03161B3E4310B13046FFF73EFF304682
:103A8000FFF74AFF00213046FFF73FFF214630464F
:103A9000FFF73BFF012088F8000029E0214630466F
:103AA000FFF733FF24E050B13046FFF726FF06E072
:103AB0001821304600F01FF9183CE4B21835182CD4
:103AC0002A46F5D82146304600F015F90EE096F862
:103AD0002400FF2802D1782086F8240037692B467D
:103AE00022463046BC46BDE8F041604788F8007089
:103AF0000120BDE8F0810028F8D03046FFF7FDFE38
:103B0000F4E70020F5E700001000002070B5002366
:103B1000456904461A462821A8470023E5681A4645
:103B200014212046A84701224B21204600F0DDF851
:103B3000206829210279204600F0D7F800224B2185
:103B4000204600F0D2F8206829210279204600F0B2
:103B5000CCF801224B21204600F0C7F8206829212B
:103B600042792046BDE8704000F0BFB80160897C12
:103B700080F822107047000070B50C46054600F032
:103B800019F888B9092C0BD00A2C01D0002070BD7F
:103B90002846FFF7BBFF05492846FFF71DFF03E056
:103BA00003492846FFF7E2FF012070BD02520008DA
:103BB000045300082DE9F0411E46144605460B2922
:103BC00008D00D290ED00E291ED00F2927D0002095
:103BD000BDE8F0811AB12849FFF7FEFE4AE0264908
:103BE000491FF9E74AB124490C31FFF7F5FE28686F
:103BF00090F8130085F822003CE01F49491DFFF7AB
:103C0000EBFE2868807CF5E7FFF71AFF8121284644
:103C1000FFF7D2FE21462846FFF7C6FE27E0FFF752
:103C20000FFF707995F8221001EBC000C7B2402158
:103C30002846FFF7C1FE102040EA17112846FFF77B
:103C4000BBFE07F00F012846FFF7AEFEB07940F04B
:103C5000B0012846FFF7A8FE30793268C006010E91
:103C60002846FFF7B1FE641E14F0FF04F4D1284685
:103C7000FFF792FE0120ABE7E151000800207047FA
:103C800010B54D2919D00CDC2B2918D004DC2929BA
:103C900020D02A290ED114E02D291FD04C2909D17A
:103CA0000BE0002250291DD051291BD0522919D0D8
:103CB000532917D0012180F82710012010BD00BF23
:103CC000FBE700204FF4A07100BF401C80B2884287
:103CD000FAD3F2E70120FDF735FCEEE70520FEF709
:103CE000F7FEEAE780F82720E7E730B444690023CD
:103CF000A44630BC60472DE9F04115460E46044607
:103D0000FFF70AFE40212046FFF7FFFD27692B46FB
:103D1000324617212046B8472046BDE8F041FFF75C
:103D2000ECBD002180F82610704730B54FF6FF72C9
:103D3000A9B30A293FD090F82630541E7BB15B1EF0
:103D400013F0FF0380F82630058C01F03F0102EAF2
:103D5000851242EA010202842DD0204630BDFC29A2
:103D600005D3052280F8262001F001011FE0F82983
:103D700005D3042280F8262001F0030117E0F02982
:103D800005D3032280F8262001F007010FE0E02987
:103D900006D3022280F8262001F00F0107E00AE096
:103DA000C02906D3012280F8262001F01F010184DA
:103DB000D3E7084630BD104630BD000010B50029DD
:103DC0000AD00878002807D005487844FCF74AFE56
:103DD000002801D0002010BD0248784410BD00002A
:103DE0001E160000161600002DE9C04130B4DFF8A1
:103DF000A0C23CEA111418BF3CEA131400F0EC8096
:103E000081EA03051CEA111444EAD57418BF1CEAC0
:103E1000131500F0C780A4EB05044FF0004545EAF8
:103E2000C12145EAC32341EA505143EA525304F108
:103E30007F74994204F500344FEAC0204FEAC22251
:103E400008BF904200F09C804FEA13650FF24016C5
:103E5000765D4FEA134506FB05F7C7F1807706FB51
:103E600007F74FEAD737A7FB03687642C8F58038D3
:103E7000A7FB06CE38BFA8F1010807FB08E64FF004
:103E8000000EA6FB028CE6FB03CEDCF1000CCEF1AB
:103E9000004E38BFAEF1010EA6FB0C584FF00007E4
:103EA0004FF00005E6FB0E87A1FB08C6A0FB07CE7E
:103EB00016EB0E0645F10005E1FB076515F1E04E36
:103EC0007EBFA4F580345FEA46066D4116F1800797
:103ED00045F100054FEA17274FEA066647EA0567EE
:103EE000A6F1DE46B6F1805F4FEA15251FD93846A8
:103EF00024F0010C05EBC471BCF1FE6F01EB0C1159
:103F000002D8F0BCBDE8008124425CBF01F5801EF0
:103F10009EEAC47F02D4F0BCBDE80081244238D4BC
:103F2000F0BCA1F1C041BDE8004100F01AB94FEA70
:103F3000D22242EA43524FEAD323A7FB02864FEA3A
:103F4000D02040EA415007FB03661EEA0E0F4FEAFD
:103F5000D12105FB026658BFA6EB0056B6EB005612
:103F60004FEA520E4EEAC37E18EB0E0E56EB530E7E
:103F7000BDD518EB02085E417F1C55F10005B6E780
:103F80004FF480154FF000074FF000064FF0000887
:103F9000ADE7F0BC4FF0000001F1C04101F000417D
:103FA000BDE8008111EA0C1F0CEA131500D00CE0EB
:103FB00013EA0C1F00F025804FF00000F0BC81EAEE
:103FC000030101F00041BDE80081F0BCBDE8004103
:103FD00081EA030100F0C5B8F0BCBDE8004170B54E
:103FE00000F071F8097EFC3E00F007B881EA030199
:103FF0004FF0000001F00041704781EA030100F03A
:10400000B0B8F0BCBDE800414FF000002149704756
:10401000FFFDFBF9F7F5F4F2F0EEEDEBE9E8E6E48D
:10402000E3E1E0DEDDDBDAD8D7D5D4D3D1D0CFCD14
:10403000CCCBCAC8C7C6C5C4C2C1C0BFBEBDBCBB4D
:10404000BAB9B8B7B6B5B4B3B2B1B0AFAEADACAB48
:10405000AAA9A8A8A7A6A5A4A3A3A2A1A09F9F9E22
:104060009D9C9C9B9A9999989797969595949393D4
:10407000929191908F8F8E8E8D8C8C8B8B8A89896B
:1040800088888787868585848483838282818180EE
:104090000000FF070000F87F10F0004248BF4042D8
:1040A000B0FA80F310FA03F10AD0C3F11D0303F54F
:1040B00080634FEA415002EB035202EBD12170477B
:1040C0004FF0000070470EF1020E2EF0030E5EF866
:1040D000046B364205D4012A43EB030515F5001F96
:1040E00012D8012841EB010C1CF5001F0CD80ED191
:1040F0004FEAD17C15F5001F0CEB4C0C0CF1020CB7
:1041000008BF4CEBD37C04E04FF0080C01E04FEA11
:10411000D37C0CEB4C0526FA05F606F00706B6F143
:10412000040C06D20EEB860CBDE870404CF0010C7E
:104130006047DFE80CF0090B02024FF000414FF03E
:104140000000A1F5002170BD19461046012851EB71
:10415000010418BFD4F5001484BF002001F0004111
:1041600070BD0808A0F500114FEA31017047FCF757
:10417000F7B90000C41F48104810C11F4210421078
:10418000C81F0800E43F2725242524252425F47F83
:1041900000000000E41F28102810E11F2210221048
:1041A000E81F880484049724A414C40C8404F47FB6
:1041B000000080000001FC7F44044404FC3F4404F0
:1041C0004404C4070400F40F240842048203610C71
:1041D0001C70100210020802C43F12021002E87F95
:1041E0000C080A08E97F0808480888088808080AAF
:1041F00008040802080208050805BF084810AC6F4B
:104200001C002A110A124912880A88080804E87F4B
:1042100008000020E4232822282AA12AA22AA22A70
:10422000A82AA82AA42AA72A842044214422242890
:104230001010010202030405060708090A0B0C0D01
:104240000E0F101000000000000000000102030427
:10425000060708090000000001020304BF00030371
:1042600005050405061213FEFD0CFD0CFE023805C3
:10427000110F54200600642401210D83252C1339CD
:104280005442D1882502220CA5E03521611945420E
:104290001100231A8A215427128A8422D1417210D4
:1042A000298A4407C941A428128A6400241DE9E12F
:1042B000531987846B9250441429A5188F9650A8DF
:1042C000122285249288AC1C0425258C2574350B7C
:1042D0004E88A2485016098A22515124329A442607
:1042E000D1882818910523A26048148C8D00261DC2
:1042F0008C2574490788C422B1280EA0034814C92C
:1043000048329A8464B4A592A534012708A2E42512
:10431000718900280EC4A533170AA988F4269205CE
:1043200003290FC4A133118C896422BD884469001C
:104330002A11E76045178CA44822A2912422C918AB
:10434000032B0D08255427563B1C646235002C0CAA
:10435000C4602B23A18C429218002D0744E02C71DD
:10436000082E0964202C23A148002F0F85212C99A9
:10437000164C0BC68269C120003014892154379530
:10438000C894649299B7894C245391CE00310A871E
:104390002554272AEE9F0E3213882554458B494613
:1043A000A6496C38D516111E0E03331589215455B4
:1043B000132DC9626269790E98C84E13D1AC0434CA
:1043C000158921541D0788A7C4C830320B8D62A3FC
:1043D00083703C3C35148825547331C50171402DE0
:1043E000349EC44CA6D2A804361689215457134DC6
:1043F000441499643C1951D66C13D9649104371252
:10440000882554F110094A82926058552C5D0E029D
:10441000381588255445134946A689484613494608
:104420004E13918C043917892154459CAC4966B6CA
:10443000C98434194F6412926424AB013A0D0421EB
:104440002C23A1C861128A04003B0F64612B23A1B5
:10445000C86112CA282489013C0B0865542D2431F7
:104460009299053D0BC86454F120473A1C043E0B59
:1044700008655421E6486214033F1488214445131B
:10448000492813D1702A8DA384A7E32000401EACD5
:10449000E163599D8DE480504C12214944FA178AFA
:1044A00064120AC96272806836AD01411C8D216CAC
:1044B0002B07CE6173101D1499032473406C7A8806
:1044C000CAA6D199744433421A8C216C7118CE1645
:1044D00047C3D16C7608CE1647C3D170349B1C46B7
:1044E00000431B8B256C5909CD2653C9980EA04358
:1044F000E6903920328E4C6333290D00441A8D2109
:10450000747110CF866BC3D974341D4D47D3D170ED
:10451000369C2D1D840045198B216471200D454367
:10452000D1286922B54EA4A3A46968281A1E0C4696
:10453000198B216471200D4543D1286922B54EA401
:10454000A3E81C32878C8F00471B8D25745909CE38
:104550005665E3D01C109AC36687E96C381B2E9110
:10456000492100480F8E217C71310DF7E361B8FFBE
:104570007431490A87213C711AEE9F0E4A188A212C
:104580005C779D03E68039600E98894694D152701D
:10459000241A16014B1C8E216C71A90DA533F1480C
:1045A0000E98C82177C01D30218FA833E290723158
:1045B0004C198B2164719E43E69039640E9943E651
:1045C0009069681A1A8A8607034D25902184613400
:1045D0001189911931328A0C23A3C83034890C43D4
:1045E000A46188348C8D8631D9306D540A194E1EE1
:1045F0008E2174412D8D83D4603185160C918231CA
:104600004A30588C12C3C33840540E014F168C25C3
:1046100074491ECD86A3E164EC79321C0D67A33189
:104620001100501A8C216C7118CE1647C3D170340A
:104630009B1D8273D01C3407CD015700511EEC65C1
:1046400073491ECD86A3E164EC493491842222B6DD
:10465000D1B80E9BC40175C80400521B8D21747122
:1046600098CE866BC3D9E2213A128FA6B3E16C12C1
:104670009A1D681300531489255C5549AC926D113D
:10468000A32566A6162391120054198B216471305C
:10469000ADCD64B3E01C3287CC2173C81C32878C4B
:1046A0004F00551B8E2174712A8D83E3E038380E3C
:1046B0008E83E3E038388E0EC32439840A561D8D6C
:1046C0001D6C71224D65C4E8303A8B034671C024DD
:1046D0000EA983E8A039500E940257228F218451ED
:1046E0006199E9161C8D82A3897042094B22923090
:1046F000853C9A436472884C0E910901581A8C21AA
:104700006451AA4C65C3E8285C87D02174483944B9
:104710000CCEA4935201591C8D1D6471290DA5B3B3
:10472000F0280E99C42174D81C3687CD6173D81C2B
:1047300072035A1489255C71201227C1E9F274169C
:10474000194666B543015B09C4A53361D2FF445CD9
:104750001087255421154BC552B1542C154B055DBE
:1047600009C4A53B41D2FF645E0DE864552796D28B
:10477000445A8444015F0748A043F1206008646004
:1047800036219A096111092154635A910D4BA2C92E
:104790006832214D08621B8B1D5C5187CC2173C888
:1047A0001CB248992DCD46B3D16C449945222300C3
:1047B000630E08214C551A95AC6B92898C04641ACF
:1047C0008B215C4B87CC2173C870329B9066A3D938
:1047D00068369AAD102791016510092154559BAC9C
:1047E0001D0EE1A164242B016610891D3C49948CA7
:1047F00026B2E171BCC7130067148961530F105DC5
:10480000B6D92EA3A21C7039100F140068198B1D85
:104810005C4187CC2173C81C32A19146A4B5D16CF0
:10482000341BCD260D690C8521342322C901A47DBA
:10483000296A10E6593327A3C921B57DAB54442317
:10484000006B178B215C4187CC2173C81C3229ADCA
:104850004D86D6E368B6D2006C0985213441DA7FF3
:10486000296D100F21844119CD2894D1FE7FA94CC8
:104870000A6E120B1D5C41A191D646B3D16C341B5C
:10488000CD260D6F0F0A215C471C4D861E27A321E4
:104890000D0070186A5D5B41995146B3C96C329B3B
:1048A000CC2694D16436078CAB0071166A5D5355E3
:1048B00009ADCC26B3C96C321BADDD0173C0B800A5
:1048C000720E09214C4119519644E3AD4500730D18
:1048D0000721444399D54EB7DA8402740F66213C10
:1048E000170D8A2CB35D22A5090075140B1D5C41C0
:1048F00022CD46B3D16C341BCD46145A65007613D5
:104900000A215451A1CC4423E144380993E71021F2
:104910000077180F217C516199A98D46C109454A3C
:104920002153E800991C221302780F092154515990
:104930008B55C7D35A6C322979176A5D5351A1CC74
:104940006423D9285A9E03E610A9243A094F017A14
:104950000F07214C71104942B3A170443A087B0DF6
:10496000C4A5332511E92213E94D007C0882315496
:10497000F161007D0DC4A1332113E92611E945043D
:104980007E0C68E454338A1C22A10900A00600644E
:104990002401A10D83652B13B1444391432502A249
:1049A0001588A1530F08C74AA3924B6C128A8C62D8
:1049B000C4701800A317892154571B494693D1642A
:1049C000161B5EE500294D62928C00A41508A554C3
:1049D0001391440E1191444894882487484412014D
:1049E000A5158A215451A1CCD48213A9244C358B0E
:1049F000CD7288D804A60982315471181E06A718F2
:104A0000E6654B350A494212A98C121BCE2234A905
:104A1000441411854600A80845603621A108A91C48
:104A20008C2164671DCDC4125185220A8DC422F1E8
:104A3000442421912462D9686A03AA0EE6603533C2
:104A40000A89284A12710500AB0CA6A4449522A13C
:104A50008824A204AC09A8A054F120D600AD0744D4
:104A6000E02C7108AE1C8C2164671DCDC4124989ED
:104A700094341BCA22B25148429954C4B2D1D406CC
:104A8000AF0625A03651B00CA5E43D3391CC26925B
:104A90000900B10F28255427961D0E32B11C783815
:104AA00008B20CE5603533095164690701B30FE6BC
:104AB00060354311494232518824A100B40864642E
:104AC00036252901B5196B615B4122CD46B3D16C06
:104AD000341BCD46149264450E9A43E600B61B8BF8
:104AE000216473388444255149549291A422A948E1
:104AF0002A928AA422D96100B70964E02C23A14834
:104B000000B80984603313935500B909E46435157E
:104B100019E942BA0BE560353391B048C605BB0EC2
:104B2000A6A444110A4944128A241402BC1B8C25F1
:104B300074150E4D6542C5A84C2A4BA188A4A269E4
:104B400028516292CAA204BD1C8C2574150E4D65B5
:104B500042C5A84C2A8B4C2823A144311A1406853F
:104B6000A46001BE1E8D2174430DA9C942CAB2685A
:104B70004822144962218A482C1A87522536A930C6
:104B80004ABF14886143199E8EE32851E970249925
:104B90005044321200C0220D226C2707CEA1726C45
:104BA00072E01C3607D1419139403207C4A687A86C
:104BB0006C1A9D49473403C1230D226C0F90C3E644
:104BC00020393639700E9B83E8A0C81C20990362F7
:104BD000D34354368DCEA4239A01C2230D226C1DDB
:104BE00007CE4112391639700E9B83E8A0C81C20ED
:104BF000990362D34354368DCEA4239A01C322ED88
:104C0000216C39890322734C72E01C3607D1419123
:104C100039403207C4A687A86C1A9D49473403C49B
:104C200022ED216C27920344722C72E01C3607D1CE
:104C3000419139403207C4A687A86C1A9D49473470
:104C400003C5230D226C2B8745E430393639700EAD
:104C50009B83E8A0C81C20990362D34354368DCEB1
:104C6000A4239A01C621901D8477B016A591A13482
:104C7000324A0C4DE480903936119F324E43C1A127
:104C80004438B41C08C720EB656B5909CD2653C9BD
:104C9000980EA043E6903920328E4C6333291D20B4
:104CA00087C9015300C81E0B22642707CD61729487
:104CB0000369281A8A464913A975221D254D4343C5
:104CC000D1F060C91F0B22640F9043E60039CA81FE
:104CD00034140D45A3A489D43A918E92A6A1A1685B
:104CE0007830CA1F0B22641D07CD011239F8401A13
:104CF0008A86A251D2446A9D484749D3D050343C59
:104D000018CB1DEB216427928AE4E00369281A8AF4
:104D1000464913A975221D254D4343D1F060CC0EA1
:104D200007223C231DCB41A7E1FEE900CD0E07225F
:104D30003C299CC961A7E1FEE900CE0E07223C1781
:104D40009D49E490D370FF74CF0EE7213CA32491DA
:104D5000434EC3FDD301D01A8D21747110CF866BE1
:104D6000C3D974621B4D47D3D170369C2D1D84006E
:104D7000D124EE21743B89432273546A691CA40632
:104D80008B29B46088148C5182C16294181EC601AC
:104D9000A2720800D21B0C26742787CD81720CE406
:104DA000D16C381A4EC69E27C3D170361A1301D360
:104DB0001C0C26740F9083E6103906F268361C0D21
:104DC0002763CF93E168381B8D8900D41C0C2674AF
:104DD0002B07D10122392A79341B8E8693B1E7C97A
:104DE00070349C8DC64400D51AEC2574390947E609
:104DF000C8E4D16C381A4EC69E27C3D170361A1338
:104E000001D61AEC257427128BE4A8E4D16C381A69
:104E10004EC69E27C3D170361A1301D711082554E8
:104E2000138C8C26B6F1CC329A042300D820CCE522
:104E3000730F0C9262A3D970349C0C23B690296630
:104E4000094E86A3E16C340B11E34000D9210E22F8
:104E5000742B87CEC172D453691C1C07C7C17170F3
:104E60001C1C07C7C171741826C9215400DA220E10
:104E700022740F9203E73039EAA9340E8E83E3E0FF
:104E800038380E8E83E3E0383A0C93E4102A00DBC6
:104E9000220E22740F9003E92075B453691C1C077D
:104EA000C7C171701C1C07C7C171741826C9215471
:104EB00000DC21EE21742B92434472B453691C1C14
:104EC00007C7C171701C1C07C7C171741826C9219E
:104ED0005400DD230D1E640F91C3E62039E2A53492
:104EE00094CEC2A338641287D06173D81C3687CDA4
:104EF0006173C80D00DE1A8C216C7107CC4187E00C
:104F00006C71341C0D47B3D9213807CD015700DF30
:104F1000178A21545714ED936C329B896693D96498
:104F200036A14C282300E0168921542307CC217296
:104F300004D38A6C58124D4693096942E1158921C0
:104F4000542B9ECA114C2BB2614934194D26A40929
:104F500001E21689215417074C2572B06945362C99
:104F60008926A3C9843421E315692154358945E68E
:104F700060D38A6C58124D4693096942E415692141
:104F800054A32891834D2BB2614934194D26A409AD
:104F900001E516892154278E88E508A615D9B02485
:104FA0009A8C2613D28400E6160D217C53212D49BC
:104FB00064A3D181229A8E661592885202E7136803
:104FC000614B551A956CD5996422A3CA01C2190088
:104FD000E8168921542507CC217284DA64ED700823
:104FE0000F2523590900E9148921542B9ECA516ABF
:104FF00093B5C3213C948C642500EA15892154198A
:10500000074C2572706DB2763884879291AC04EBB0
:105010001569215425114AE4E0DA64ED70080F2582
:1050200023590900EC0B852134211B8A49FB52EDE1
:105030000C852134279AC801A47D29EE0C852134E2
:10504000159BA892F6A500EF0B65213421A14849D4
:10505000FB52F015A9215C23874C8453891C302C0A
:105060004D6EDE268B3300F1176B1D5C398946E6E9
:1050700008141A696D341BCD46B3D16CD200F214FA
:105080008A215C2787CC417214DB6832F43819CD51
:105090004C00F3138A215C2D078CE548B6D164E8F7
:1050A00071329A9900F4148A215C290750457204E0
:1050B000DB6832F43819CD4C00F5136A215C3709EE
:1050C00046E628B6D164E871329A9900F6136A214F
:1050D0005C25914AE428B6D164E871329A9900F7C8
:1050E0000E0825542796030F0739502C03F8198909
:1050F000A1530F890382B4916474895822A78968E7
:10510000468C03E21000F9198B1D5C2707CD6172F4
:10511000141269369A8D66A3D96836A2D02A03FA8A
:10512000188B1D5C2D87CC017224A6D968369A8D08
:1051300066A3D98842AB0CFB1A8B1D5C1B07CD0103
:1051400012390289341BCD46B3D16C341B5168959A
:1051500001FC186B1D5C27114BE40824D26C341B36
:10516000CD46B3D16C44A15506FD1FEB5D532D8791
:10517000CC0172A44A65289B4545D2491C4007CC06
:105180004162497812078C01FE1FEA5D5B4107CC42
:105190000173C01C30995146B3C96C329BCC269424
:1051A000D16436078C8D00FF1ECB5D5327114BE475
:1051B00008959250368B8AA49338800E9883C492B7
:1051C000F0240E180300000004FFFF0000000000A0
:1051D0002338000827380008473300081815AF198E
:1051E000FF1815AE19FF1815A115C819FF1815A03D
:1051F00015C019FF1815A115C019FF1815A015C85D
:1052000019FF1815AE15D5168015A8163F15D3161B
:10521000001540158D16141520160015A115C8157A
:10522000DA1612158116CF15D916F115DB164015B1
:105230002E15A415A619FF1815AE15D5168015A89C
:10524000163F15D316001540158D1614152016009F
:1052500015A115C815DA1612158116EF15D916A164
:1052600015DB1600152E15A415A619FF1815AE1579
:10527000D5168015A8163F15D316001540158D16A6
:10528000141520160015A115C815DA160215811679
:10529000CF15D916F115DB1640152E15A415A61934
:1052A000FF1815AE15A415D5165015A8163F15D321
:1052B0001600154015AD168B15D9162215DB1635BF
:1052C0001532158116FF15A615DA161219FF1815D5
:1052D000AE15D5168015A8163F15D3160015401526
:1052E0008D16141520160015A115C015DA16121505
:1052F0008116CF15D916F115DB1640152E15A415FC
:10530000A619FF000001140A6464323200127A0008
:105310000004289610080000800040000001140AD4
:105320006464323200093D0003042896100802022A
:105330008000400002400000000000A000000000CB
:1053400005400000000000C8000000000C40000004
:105350000000409C00000000194000000020BCBE7E
:105360000000000034400000BFC91B8E0000000494
:10537000B5400000504BCFD06607E2CF01000000DF
:105380006C4100003E8251AADFEEA734010000000C
:10539000D9420000DCB5A0E23A301F97FFFFFFFFC3
:1053A000B4450000FD25A0C8E9A3C14FFFFFFFFFE2
:1053B000FF3F00000000008000000000FF3F0000F1
:1053C00000000080000000000454000800000020DD
:1053D00018000000280100081C54000818000020D4
:1053E000180C0000440100081C00000043000000ED
:1053F000F8FFFFFF0C0000000E0000000F0000008F
:105400002E0000000100000010000000000000005D
:0C54100000127A00000000000000000004
:04000005080000ED02
:00000001FF
