:020000040800F2
:10000000980B00208901000823130008D70F00086F
:1000100021130008D5020008A11400080000000008
:10002000000000000000000000000000271300088E
:10003000D70200080000000025130008291300085B
:10004000A3010008A3010008A3010008A301000800
:10005000A3010008A3010008A3010008A3010008F0
:10006000A3010008A3010008A3010008A3010008E0
:10007000A3010008A3010008A3010008A3010008D0
:10008000A3010008A3010008A3010008A3010008C0
:10009000A3010008A3010008A3010008A3010008B0
:1000A000A3010008A3010008A3010008A3010008A0
:1000B000A3010008A3010008A3010008A301000890
:1000C000A3010008A3010008A3010008A301000880
:1000D000A3010008A3010008A3010008A301000870
:1000E000A3010008A3010008A301000800F002F822
:1000F00000F03AF80AA090E8000C82448344AAF188
:100100000107DA4501D100F02FF8AFF2090EBAE885
:100110000F0013F0010F18BFFB1A43F0010318473B
:10012000AC420000CC420000103A24BF78C878C12D
:10013000FAD8520724BF30C830C144BF04680C60ED
:10014000704700000023002400250026103A28BF35
:1001500078C1FBD8520728BF30C148BF0B60704739
:100160001FB51FBD10B510BD00F07AF81146FFF79E
:10017000F7FF01F0A7F900F098F803B4FFF7F2FFDA
:1001800003BC00F0A1F80000094880470948004777
:10019000FEE7FEE7FEE7FEE7FEE7FEE7FEE7FEE737
:1001A000FEE7FEE704480549054A064B7047000094
:1001B0008B130008ED00000898050020980B002024
:1001C00098070020980700204FF000020429C0F093
:1001D000128010F0030C00F01B80CCF1040CBCF179
:1001E000020F18BF00F8012BA8BF20F8022BA1EBCB
:1001F0000C0100F00DB85FEAC17C24BF00F8012BB0
:1002000000F8012B48BF00F8012B70474FF00002A7
:1002100000B5134694469646203922BFA0E80C50FC
:10022000A0E80C50B1F12001BFF4F7AF090728BFD7
:10023000A0E80C5048BF0CC05DF804EB890028BF53
:1002400040F8042B08BF704748BF20F8022B11F07C
:10025000804F18BF00F8012B7047704770477047F8
:10026000754600F02BF8AE4605006946534620F06F
:100270000700854618B020B5FFF794FFBDE8204081
:100280004FF000064FF000074FF000084FF0000B52
:1002900021F00701AC46ACE8C009ACE8C009ACE805
:1002A000C009ACE8C0098D46704710B50446AFF3ED
:1002B00000802046BDE81040FFF75FBF0048704750
:1002C000340500207047000001491820ABBEFEE74E
:1002D00026000200FEE7704772B6FEE770B50446DE
:1002E00000F0FEF80546601C02D004480078044483
:1002F00000F0F6F8401BA042FAD370BD00000020C9
:100300002DE9F84FDFF8B891002409F1040A0AF149
:10031000040B23460F270BF1040EC9E00125A5406D
:100320002A40AA427DD1674ED1F804C0ACEB060842
:10033000B44532D014DCBCF1030F3AD009DCBCF177
:10034000000F2AD0BCF1010F1CD0BCF1020F31D13B
:100350001DE0BCF1110F17D0BCF1120F2AD119E02A
:10036000B8F5881F19D006DCB8F5803F15D0B8F570
:10037000801F1FD111E0B8F5001F0ED0B8F5041F83
:1003800018D10AE0CB6815E0CB681B1D12E0CB68E2
:1003900008330FE0CB680C330CE08B682BB1012BDA
:1003A0004FF0080303D0456104E0042302E0056137
:1003B00000E00023FF2A01D8064601E000F1040610
:1003C0004FEA840501D9A5F12005D6F8008007FA87
:1003D00005FC28EA0C0803FA05F548EA0508C6F802
:1003E00000804D68ED0062D5374DAE6946F00106DC
:1003F000AE61AD6924F0030605F001050095334DAB
:1004000006EB050CDCF80850A607360F07FA06F8CD
:1004100025EA0805DFF8B880404503D14FF0000811
:1004200017E044E0DFF8AC80404502D14FF001080E
:100430000FE0DFF8A480404502D14FF0020808E049
:10044000DFF89880404502D14FF0030801E04FF0FB
:10045000040808FA06F848EA0508CCF808804D6850
:10046000D9F80060ED034D4601D5164300E09643F0
:100470002E604D68DAF80060AD03554601D516438D
:1004800000E096432E604D68DBF80060ED025D46AB
:1004900001D5164300E096432E604D68DEF80060FB
:1004A000AD02754601D5164300E096432E60641CEC
:1004B0000D682A46E5407FF431AFBDE8F88F0000B3
:1004C0000004014000001110001002400000014033
:1004D00000080140000C01400010014000140140E0
:1004E00001488068704700000000002070B50400DB
:1004F00025D094F83D00002520B984F83C502046D2
:1005000000F04EF9242084F83D002068016821F0B5
:10051000010101602068016841F400410160206828
:10052000016821F40041016000F08AFA4D4A6168D7
:10053000914201D84C4900E04C49884201D2012047
:1005400070BD4B492368B0FBF1F15E6826F03F06B1
:100550000E435E606368934206D94FF49673594325
:100560004FF47A73B1FBF3F12368491C1E6A26F03D
:100570003F06314319626168914210D84900401E1C
:10058000B0FBF1F2521CC2F30B02042A01D2042088
:1005900022E0B0FBF1F0401CC0F30B001CE0A268AD
:1005A000F2B301EBC10303EB0116431EB3FBF6F3F9
:1005B0005B1C43F480431B0549D092B301EBC1029D
:1005C00002EB0111401EB0FBF1F0401CC0F30B0028
:1005D00040F4804040F400402168CA694CF6FF7343
:1005E0009A431043C861D4E90710014320680268A8
:1005F00022F0C00211430160D4E9030101432068E5
:10060000826848F2FF339A4311438160D4E90501BF
:1006100008432168CA6822F0FF021043C86001E065
:100620000EE016E02068016841F0010101602564D8
:10063000202084F83D00256384F83E50002070BDE2
:1006400001EB4106431EB3FBF6F35B1CB3E701204D
:10065000C2E701EB4101401EB0FBF1F0401CC0F3CA
:100660000B00B7E7A086010080841E0000093D0052
:1006700040420F002DE9F84F1F4690468A46044637
:10068000DDF82890FFF72CFF054694F83D00202860
:100690007FD11923012240492046009500F028FD12
:1006A000002876D194F83C00012872D0012084F80B
:1006B0003C0020680168C90703D1016841F00101CD
:1006C00001602068016821F400610160212084F844
:1006D0003D00102084F83E0000262664C4F82480E3
:1006E0006785608D20852D48E0622B464A4651463D
:1006F000204600F089FC90B920684169806900902B
:1007000036E02A464946204600F071FD50B1206C83
:10071000042804D12068016841F4007101600120BF
:10072000BDE8F88F606A216800780861606A401C43
:100730006062618D491E6185218D491E89B22185C6
:1007400022685369DB435B070BD451B10078106119
:10075000606A401C6062608D401E6085208D401E76
:1007600020852A464946204600F09CFC0028CED130
:10077000208D0028C5D154F83D0B016841F400716B
:100780000160202004F81E09E67766770020C7E79D
:10079000FFE70220C4E70000020010000000FFFF96
:1007A00010B586B00021009101910291039100687B
:1007B000104988421BD1104CA06940F00800A0618C
:1007C000A069694600F0080004904FF44060009072
:1007D00012200190032003900848FFF791FDE06983
:1007E00040F48000E061E06900F48000049006B00D
:1007F00010BD00000058004000100240000C0140F5
:10080000024881680278114481607047000000202E
:10081000074810B5016841F010010160032000F0A5
:1008200067F80F2000F006F800F024F8002010BD53
:100830000020024070B50D4D04464FF47A712878BF
:10084000B1FBF0F00A490968B1FBF0F000F0CEFA14
:1008500048B9102C07D200222146501E00F028F87B
:1008600000206C6070BD012070BD00000000002001
:100870000C0000200C4808B5816941F0010181613C
:10088000816901F001010091C16941F08051C161AC
:10089000C06900F0805000900448416821F0E06198
:1008A00041F00071416008BD0010024000000140AD
:1008B000F0B40E4B1B680C46C3F30223C3F10705CB
:1008C000042D00D90425191D072901D2002300E0B9
:1008D000DB1E012606FA05F1491E214099409E4083
:1008E000761E16403143F0BC00F0DBBD0CED00E09D
:1008F000064900F0070208684FF6FF03184040EA77
:100900000220034A10430860704700000CED00E02D
:100910000000FA052DE9F0470F46050061D0434E6F
:10092000306800F00700B84209D2306820F00700B4
:1009300038433060306800F00700B84251D1286871
:100940003B4C810712D5400703D5606840F4E06056
:1009500060602878000703D5606840F460506060EC
:100960006068A96820F0F000084360602878C0073C
:1009700028D06868012810D02168022810D0890783
:1009800000292EDA616821F0030101436160FFF75D
:10099000A7FD804641F288390DE021688903EFE721
:1009A0008901EDE7FFF79CFDA0EB0801494502D95D
:1009B0000320BDE8F0876068696800F00C00B0EBC8
:1009C000810FEFD1306800F00700B8420BD93068D2
:1009D00020F0070038433060306800F00700B8426C
:1009E00001D00120E5E72878400705D56068E9686F
:1009F00020F4E060084360602878000706D560684E
:100A0000296920F4605040EAC100606000F028F8D5
:100A10006168084AC1F30311515CC8400649086087
:100A200006480068FFF706FF0020C2E700200240EA
:100A300000100240422500080C00002004000020A5
:100A40000448054900684968044AC1F30221515C21
:100A5000C84070470C0000200010024052250008DA
:100A600012A185B00FC98DE80F0014A0144A0068C8
:100A700004905168134801F00C03042B10D0082B8C
:100A80000ED1C1F38343C9031DF803000AD5516891
:100A900004AAC1F34041515C0A4A5043B0FBF1F053
:100AA00005B0704708494843FAE70000020304050F
:100AB000060708090A0B0C0D0E0F101001020000AA
:100AC0000010024000127A0000093D002DE9F84FA5
:100AD000040070D02078C04DC00749D06868C0F3CA
:100AE0008100012807D06868C0F38100022809D17D
:100AF0006868C00306D52868800339D56068002877
:100B0000E7D035E06068B0F5803F0BD010B1B0F5AC
:100B1000A02F11D0286820F480302860286820F4A5
:100B2000802002E0286840F480302860606890B13E
:100B3000FFF7D6FC06460AE0286840F480202860CB
:100B4000F0E700BFFFF7CCFC801B642873D828684F
:100B50008003F7D50CE0FFF7C3FC064605E000BFB5
:100B6000FFF7BEFC801B6428F0D828688003F7D408
:100B700020789A4E80074FF001094FF0000839D5D0
:100B8000686810F00C0F07D06868C0F38100022875
:100B900009D16868C00306D42868800714D5206985
:100BA000012808D110E02069B0B1C6F80090FFF725
:100BB00097FC074605E00AE1FFF792FCC01B0228FC
:100BC000C4D828688007F7D52868616920F0F80044
:100BD00040EAC10028600DE0C6F80080FFF780FC05
:100BE000074604E0FFF77CFCC01B022823D82868D6
:100BF0008007F7D4207800072CD57948A169D9B1AE
:100C0000C0F80090FFF76CFC074604E0FFF768FCB3
:100C1000C01B02280FD8686A8007F7D571484FF4C7
:100C2000FA510068B0FBF1F0009000BF0098411E3F
:100C30000091FAD20EE080E0C0F80080FFF750FC8F
:100C4000074604E0FFF74CFCC01B022875D8686A11
:100C50008007F7D42078400760D5E8690027C000F6
:100C600008D4E86940F08050E861E869012700F0A5
:100C7000805000905C480168C90513D40168834620
:100C800041F480710160FFF72BFC824606E000BF53
:100C9000FFF726FCA0EB0A0064284ED8DBF8000022
:100CA000C005F5D5E06801280AD008B1052813D0A1
:100CB000286A20F001002862286A20F0040002E07F
:100CC000286A40F001002862E06841F2883B98B150
:100CD000FFF706FC82460BE0286A40F00400286219
:100CE000EEE700BFFFF7FCFBA0EB0A0159455AD81D
:100CF000286A8007F6D50CE0FFF7F2FB824605E094
:100D0000FFF7EEFBA0EB0A0159454CD8286A800793
:100D1000F6D41FB1E86920F08050E861E06988B33B
:100D20006968C1F38101022944D00228C6F86080B5
:100D300004D0FFF7D5FB044638E034E0FFF7D0FBE2
:100D4000074604E0FFF7CCFBC01B02282BD828681D
:100D50008001F7D4206AB0F5803F05D16868A168AA
:100D600020F4003008436860D4E90801084369684A
:100D700021F4741108436860C6F86090FFF7B0FB77
:100D8000044606E025E000BFFFF7AAFB001B02288F
:100D900009D828688001F7D51BE000BFFFF7A0FB4A
:100DA000001B022802D90320BDE8F88F28688001C3
:100DB000F4D40EE00128F7D06868226A00F480318C
:100DC000914204D1616A00F47010884201D0012080
:100DD000EAE70020E8E7000000100240000042427D
:100DE000800442420C0000200070004010B5401EFC
:100DF000B0F1807F01D3012010BD4FF0E02460618D
:100E00000F21601700F04DFB0020A061072020613A
:100E1000002010BD70B590F83C20012A26D0012496
:100E200080F83C40022280F83D2003685A689D68A3
:100E300022F070060A6832435A600D4B02689A42EB
:100E400008D0B2F1804F05D00A4B9A4202D00A4B2B
:100E50009A4204D1496825F080031943916080F8D3
:100E60003D40002180F83C10084670BD022070BD56
:100E7000002C0140000400400008004010B50400B0
:100E800003D094F83D0010B107E0012010BD002010
:100E900084F83C00204600F01FF8022084F83D0052
:100EA000211D206800F072FA012084F8460084F8C1
:100EB0003E0084F83F0084F8400084F8410084F844
:100EC000420084F8430084F8440084F8450084F824
:100ED0003D00002010BD000008B5006806498842AA
:100EE00008D10648816941F400618161806900F49C
:100EF0000060009008BD0000002C0140001002407E
:100F000070B5044690F83C00012817D0012584F8FC
:100F10003C50022084F83D002068826822F077026D
:100F200022F47F4282600868502830D00DDC2028EF
:100F30004DD005DC98B310283BD148E0022070BDAD
:100F4000302844D0402834D139E0602828D0702897
:100F500006D0B0F5805F2CD0B0F5005F29D10AE053
:100F6000CB68D1E90121206800F046FA2068816849
:100F700041F0770109E0CB68D1E90121206800F058
:100F80003BFA2068816841F48041816011E0CA68C1
:100F90004968206800F042FA5021206807E016E016
:100FA000CA684968206800F04AFA6021206800F0A9
:100FB0002DFA84F83D50002084F83C0070BDCA68CA
:100FC0004968206800F02AFA40212068EFE722688B
:100FD00001461046EBE7FEE701684A69D243520535
:100FE0000FD46FF480624A61002140F8301F202244
:100FF00042738173026942F00402026101730120AD
:101000007047002070470000F8B50446C06A1E46CD
:101010000D461746082807D0012805D010F5803F57
:1010200002D0206B122804D12068016841F480713D
:101030000160134600224FF001112046009600F097
:1010400057F840B120680068C00502D54FF4007021
:1010500020640320F8BD2069B0F5804F0ED0062033
:10106000216800EAD51040F0F000086133463A46A6
:101070000B49204600F070F878B902E005F0FE0058
:1010800000E0E8B221680861054933463A46891F05
:10109000204600F061F80028DCD00120F8BD0000F7
:1010A0000800010070B516460D4604460DE02046C6
:1010B000FFF792FF08B1012070BD681C05D0FFF753
:1010C0000FFA801BA84207D835B120684069C04399
:1010D0004007ECD4002070BD002044F8300F2021E0
:1010E0006173A073216941F0200121612073E2E75F
:1010F0002DE9F0471E4690460D460446C1F30747CA
:10110000DDF8209008E0701C06D0FFF7E9F9A0EBAD
:101110000900B0420FD876B12068012F18D080693D
:1011200025EA00000004000C14D000214145EAD05B
:101130000020BDE8F087002044F8300F20216173C3
:10114000A073216941F02001216120730120F0E7A3
:101150004069E5E70121E9E72DE9F0479A46914624
:101160000E46044600254FF02008C1F3074725E04E
:1011700020684069C043400514D42068016841F4E8
:101180000071016021686FF480604861256384F814
:101190003D8084F83E50206C40F00400206484F8C8
:1011A0003C501FE0B9F1FF3F08D0FFF799F9A0EBE1
:1011B0000A0149450CD8B9F1000F09D02068012F68
:1011C00013D0806926EA00000004000C0BD0CFE7A2
:1011D00044F8305F84F80D80A573206940F020004A
:1011E000206125730120BDE8F0874069EAE770B50A
:1011F00016460D4604460DE02046FFF7EDFE08B109
:10120000012070BD681C05D0FFF76AF9801BA84259
:1012100007D835B120684069C0430006ECD40020EF
:1012200070BD002044F8300F20216173A073216944
:1012300041F0200121612073E2E700000D4808B56C
:10124000816941F020018161816901F020010091F3
:10125000816941F008018161816901F00801009113
:10126000816941F004018161806900F0040000900F
:1012700008BD0000001002400D4810B50B49016088
:101280000C49416000214FF480428160C0E90312A3
:1012900041618161C1610162FFF728F9002803D033
:1012A000BDE81040FFF718B810BD0000005800401E
:1012B00018000020A086010010B586B00024174851
:1012C00000940194029403940494134905940160DA
:1012D0004721C0E901144FF6FF71C0E903144461CE
:1012E0008461FFF7CBFD08B1FEF7F6FF4FF48050A5
:1012F000009069460948FFF703FE08B1FEF7ECFFCE
:10130000049404A905480594FFF784FD002801D042
:10131000FEF7E2FF06B010BD002C01406C0000207B
:10132000FEE7FEE770477047FFF76ABA30B58FB047
:1013300028216846FEF76AFF14210AA8FEF766FF17
:1013400001210804CDE90010002402940225049133
:10135000CDE907504FF4E01009906846FFF7B6FB5F
:1013600008B172B6FEE70F20CDE90A054FF48060A0
:10137000CDE90C4002210AA80E94FFF7CBFA002811
:1013800001D072B6FEE70FB030BD7047F0B502680D
:10139000164B174C174D4FF08047984205D0B84276
:1013A00003D0A04201D0A84203D122F070064A68BF
:1013B0003243984205D0B84203D0A04201D0A8429F
:1013C00003D122F44074CA6822434C6922F080029F
:1013D000224302608A68C2620A688262984201D12E
:1013E0000969016301214161F0BD0000002C014049
:1013F000000400400008004010B5846842EA03225F
:1014000024F47F440A432243826010BD826822F0A4
:1014100070020A4342F007018160704710B5036A09
:10142000046A24F001040462846924F0F00444EAAC
:10143000021423F00A020A438461026210BD10B54F
:10144000036A23F0100303628369046A23F4704380
:1014500043EA023224F0A00343EA011182610162EF
:1014600010BD00000D4900220B685A620A6813681B
:1014700043F00103136009684A6A8242FCD3086A98
:1014800041F21112104207D1086A9210104203D1A2
:10149000086820F001000860704700006C00002020
:1014A000FEE70907090E002804DB00F1E02080F8C0
:1014B0000014704700F00F0000F1E02080F8141DC8
:1014C00070470000A8B0FFF7A3F9FFF72FFFFFF761
:1014D000B5FEFFF7D1FEFFF7EFFE02A800F07EF8A1
:1014E000374902A800F0C5F9364E0024102506F150
:1014F000200706F1400806F1600906F1800A06F1AE
:10150000A00B641C00E0002404F11000CDE900569B
:1015100081B21023002202A800F064F904F1200037
:10152000CDE9005781B21023002202A800F05AF939
:1015300004F13000CDE9005881B21023002202A846
:1015400000F050F904F14000CDE9005981B21023B8
:10155000002202A800F046F904F15000CDE9005A3B
:1015600081B21023002202A800F03CF904F16000CF
:10157000CDE9005B81B21023002202A800F032F90D
:1015800010481023C030CDE9005004F1700081B242
:10159000002202A800F026F90B4902A800F069F920
:1015A0000AA33222102102A800F014F902A800F0C8
:1015B00057F96420FEF792FE802CA2D9A3E7000021
:1015C000F7320008622400085A2500083633323208
:1015D00030373033303331330000000010B504466B
:1015E000084B094A094900F08BF9204600F0D7FC66
:1015F0000021204600F0E3FC2046BDE8104000F04A
:1016000007B80000B92300086120000868420008FC
:1016100001680A7C90F83810406B5143C900FEF70E
:10162000D3BD2DE9F041044690F870001F461546E1
:101630000E4630B1012809D002280CD0032815D15C
:101640000FE0E16D20468847284408E0E16D204620
:101650008847301A09E0E16D20468847281A85B28C
:1016600004E0E16D20468847304486B22846A4F85D
:101670006460A4F8660039460025204600F036FB79
:10168000010003D0204600F061FA85B22846BDE88B
:10169000F08100003FB581B0044690F88C000899B5
:1016A00000283AD0BDF81000002836D0012811D902
:1016B000022902D0032907D00CE0BDF80820101A37
:1016C000401CADF8080005E0BDF80C20101A401CC5
:1016D000ADF80C0011F0010521D0B4F84810BDF8A8
:1016E0000800814219D8B4F84A10814215D9B4F8DB
:1016F0004E30B4F84C2004A90DF10C0000F098F91C
:1017000000280AD00095206BBDF81030BDF80C20E1
:101710008568BDF808102046A84705B030BDB4F86C
:101720004C10BDF80C008142F7D8B4F84E1081423D
:10173000F3D9B4F84A30B4F8482004A902A8DDE788
:101740002DE9FF4F81B090F89270DDF838901D467A
:10175000884606469FB10020834603984146401CB8
:1017600080B2009008EB050083B23046039A00F087
:101770005FF800282BD001244FF0000A23E001205D
:10178000EAE700BF99F80000204202D086F8927084
:1017900004E096F8910048B986F892B00123CDF89C
:1017A00000A041463046039AFFF774FF08F101009C
:1017B0001FFA80F8600010F0FF0402D1012409F143
:1017C00001096D1EADB2002DDCD186F8927005B016
:1017D000BDE8F08F30B4024C446030BC00F055B925
:1017E000252000082DE9F84F8246DDE90A57D81D6B
:1017F000C0F3CC08501980B21C460090081983B27F
:1018000016468946504600F013F800280ED00BE02B
:1018100023463246494650460097FFF791FF761C13
:101820006D1E4744B6B2ADB2002DF1D1BDE8F88FC0
:1018300070B50D461E460446B0F84E10B0F84C0088
:10184000049B00F0B0FA002809D0B4F84A10B4F8AC
:10185000480033462A46BDE8704000F0A4BA70BD87
:1018600010B5044600F02FFB2046BDE8104000F004
:101870009EBB10B50446806D884209D004F1740007
:10188000A16500F0EBFA2046BDE8104000F054B826
:1018900010BD00000149C16570470000011B000830
:1018A0000021A0F85010A0F854104FF6FF71A0F8D6
:1018B0005210A0F85610016B4968084770B50446ED
:1018C00000250498A565E362616384F8382084F8F4
:1018D000395084F86D5084F89150012184F89210A9
:1018E00084F8931020630168204688472046FFF75C
:1018F000D7FF2046FFF7CEFF84F8705070BD000080
:101900007CB50C46009313460546084A084900F08A
:101910005EFB01A800F09CFA0146064B00949DF87E
:1019200004202846FFF7CAFF7CBD0000892100087B
:10193000B1220008C11D000810B5816D00291AD020
:1019400090F9813080F88E3090F9822080F88F20D5
:1019500090F88D1000290ED001290DD090F97E400D
:1019600090F980100C449C4201DD80F88E408A4240
:1019700001DD80F88F1010BD90F983108B4201DAE1
:1019800080F88E1090F98410F1E72BB1012B05D06F
:10199000022B06D0104402E0084400E0801A80B216
:1019A0007047401AFBE72BB1012B05D0022B06D064
:1019B000401A02E0104400E0084480B27047801AE8
:1019C000FBE738B50446B0F856000090B4F8523042
:1019D000B4F85420B4F850102046FFF729FF18B38C
:1019E000012084F88C00B4F84810B4F8500081420B
:1019F00001D2A4F84800B4F84A10B4F85200814269
:101A000001D9A4F84A00B4F84C10B4F8540081424B
:101A100001D2A4F84C00B4F84E10B4F8560081423C
:101A200001D9A4F84E0038BD002084F88C0038BDE0
:101A300030B504880D882544ADB2AC4205D99C422E
:101A400002D25D1EADB200E014469C4201D2954226
:101A500001D8002030BD944200D214469D4200D9E6
:101A60001D460480281B0880012030BD38B5C58F75
:101A7000049C0094521BC46A92B2A04738BD38B58A
:101A8000049C0094FFF7F2FF38BD2DE9F0471C4697
:101A900091468846064600F0E0FC00254FF6FF77A9
:101AA00072682178304690470346B84225D0641CBE
:101AB000A3F57F40FE38F3D04A4641463046FFF753
:101AC000B0FD96F8701031B1012907D0022908D075
:101AD00003290FD10AE008EB000104E009EB000143
:101AE00006E0A8EB00011FFA81F803E0A9EB000172
:101AF0001FFA81F9284485B2D2E72846BDE8F0876D
:101B00000020704710B50C4600F006F80122641E54
:101B1000A240801A40B210BD30B50568047B2A7817
:101B2000E2406318DBB2082B09D36D1C05602D78E9
:101B3000C4F10804A5401543083BEAB2DBB2012416
:101B40008C40641E14400373204630BD2DE9F843D9
:101B5000054600F1600400F00CF915F96B6F2046A2
:101B6000E97BFFF7CFFF8146297C2046FFF7CAFFBC
:101B70000746697C20466B3DFFF7C4FF804694F919
:101B80000A00002857DDF019404247B2237CA088A4
:101B90003A464946FFF7F9FEA080237C3A46E088A2
:101BA0004946FFF700FFE080A188277C02460B46EC
:101BB00037B1012F0AD0022F40D0032F0FD146E0BA
:101BC00094F90A7030443B449BB207E0891B491CDE
:101BD00094F90A705B1C89B29BB2384480B20090C1
:101BE0002846FFF725FE30B30020207284F8090054
:101BF00095F876102046FFF78FFF814695F877100D
:101C00002046FFF789FF074600224946284600F094
:101C100027F801223946284600F022F80121204603
:101C2000FFF77AFF0028EFD194F90900B042DFDB1B
:101C3000A07B85F892004046BDE8F88394F90A70CD
:101C40005B1CC91B491C89B29BB2921B04E094F92E
:101C50000A7033449BB2D21B521C92B2401CBDE7A7
:101C60002DE9F74F84B00D46049C94F8687094F801
:101C700069806034A07AC01BC6B20196B54200D21A
:101C800001954FFA88F279B2A088B4F806B0237CA7
:101C900092468946FFF779FE0290237C52464946D8
:101CA0005846FFF780FE0246069808B1A17B02E085
:101CB000607B50B9E17B049880F89210207C009002
:101CC000DDE901310498FFF7E5FCB54207D3A81B15
:101CD000C5B208F10100002700F0FF08CAE7781933
:101CE000207284F8098007B0BDE8F08F70B50D460A
:101CF0000146806D1730FF2D10D8612D02D3B1F849
:101D0000881003E0412D02D3B1F8861008444178D1
:101D100019B30278AA42F9D1801C70BDB1F88A10BB
:101D20000C1826460021304600F019F80444022120
:101D3000304600F014F8361DA842F3D34FF6FF7278
:101D4000207802EA00216078084306D0A84201D139
:101D5000E01C70BDA0780444F2E7002070BD084488
:101D60004FF6FF720178407802EA0121084480B200
:101D7000704730B5054600F160040166002020730D
:101D800015F8781F2046FFF7C7FEA0726978204635
:101D9000FFF7C2FEE072A87EA07310B10020E073CE
:101DA00030BD0120FBE78A4205D2834201D89A4226
:101DB00003D9012070478342F9D800207047000002
:101DC000F0B502F007060124B440002590F892E037
:101DD000E7B2DDF814C02C46BEF1010F01D83D4634
:101DE00000D03C46076822F00702BCF1000F3F7CA0
:101DF00007FB02F7BAB2476B3A44114409D108789D
:101E00005B1E284360401B0401F8010B1B0CF6D13C
:101E1000F0BD0A78761C2A436240A3F101030A70E0
:101E200016F007069BB206D06A06150E6206140E5F
:101E3000002BEED1F0BD428F114490F89220012A80
:101E400003D800BF4FF00105F2D04FF00104EFE7D7
:101E500008210170004870473401002070B5054624
:101E600008782870487868708878A870C878E87012
:101E7000087928714879687188790C46A871E079E9
:101E8000E871207A2872607A6872A07AA872E07A83
:101E9000E872207B2873607B6873A07BA873E07B6B
:101EA000E873207C287411212046FFF758FF6882D0
:101EB00013212046FFF753FFA88215212046FFF784
:101EC0004EFFE88270BD2DE9F843064690F8387061
:101ED00090F83950006800244FF6FF7890F8119080
:101EE000316830462A460B7C716B04FB03FC1FFAF9
:101EF0008CFC08EACC0C61440091002100F040F811
:101F0000641C6D1CE4B2EDB2BC4201D24D45E7D376
:101F1000BDE8F883F0B590F838204FF6FF750368F8
:101F200005EAC2018187197C05EAC101418790F861
:101F3000394005EAC401C1875E7CA718B74201D9C0
:101F4000321B92B205EAC20220F8401F11444180C0
:101F5000998A8180D98AC180F0BDFFF7DBBF00215B
:101F6000A0F84810B0F84410A0F84A10B0F840109B
:101F7000A0F84C10B0F84210A0F84E10FFF721BDA9
:101F80001CB58DF805108DF80620049C8DF80430E2
:101F90000094012284686B460F21A0471CBD30B419
:101FA00084680023A44630BC1A460A21604730B436
:101FB00084680023A44630BC1A461021604730B420
:101FC00084680023A4460A4630BC0B2160472DE9F3
:101FD000F04115460E460446069F00F009F8676179
:101FE000A660C4E903532046BDE8F04100F012B8F2
:101FF000002140F8081B064A026042608260C2600D
:10200000C17681770161FF21017780F82010704748
:10201000B523000830B484680023A44630BC1A46B7
:1020200009216047080001D00A2801D14FF6FF704E
:10203000704730B404690023A44630BC1A46192105
:10204000604713B50122046901AB1721A0471CBDED
:1020500030B404690023A44630BC1A4618216047F6
:1020600038B5184818290DD004DC142907D01729D1
:1020700023D10AE0192916D020291ED11FE0FFF72D
:10208000FBF81CE00021017019E00F4C08E000BFD4
:10209000017813F8015B6554491C521E0170D2B2DD
:1020A000002AF5D10BE04FF47A7100910378064ACB
:1020B00078210648FEF7DEFA08B1002038BD01207D
:1020C00038BD000010000020B400002018000020DF
:1020D00030B4C4680023A44630BC1A4619216047B6
:1020E00030B4C4680023A4460A4630BC16216047B9
:1020F00030B4C4680023A4460A4630BC15216047AA
:1021000030B4C4681346A4460A4630BC1721604761
:10211000F8B50C464FEA000514F8011B182924D025
:102120000EDC152919D0162917D0172923D12078AC
:102130008DF800006A4601212846FFF7E1FF0AE01A
:10214000192912D0FE2916D122788DF800202921D4
:10215000284600F066F9641CDEE722788DF800203E
:10216000EE6800232846B047F5E70023EE681A46DC
:102170002846B047D0E7F8BD30B4C4680023A44671
:1021800030BC1A46182160472DE9F041DFF8B080D5
:1021900014460646A1F11402002798F800001D46D7
:1021A000062A4AD2DFE802F02F03161B3E4310B185
:1021B0003046FFF73EFF3046FFF74AFF002130462A
:1021C000FFF73FFF21463046FFF73BFF012088F82D
:1021D000000029E021463046FFF733FF24E050B1EC
:1021E0003046FFF726FF06E01821304600F01FF9C1
:1021F000183CE4B21835182C2A46F5D8214630464A
:1022000000F015F90EE096F82400FF2802D178209E
:1022100086F8240037692B4622463046BC46BDE886
:10222000F041604788F800700120BDE8F081002887
:10223000F8D03046FFF7FDFEF4E70020F5E7000098
:102240001100002070B50023456904461A46282174
:10225000A8470023E5681A4614212046A847012212
:102260004B21204600F0DDF8206829210279204624
:1022700000F0D7F800224B21204600F0D2F8206869
:1022800029210279204600F0CCF801224B2120467A
:1022900000F0C7F82068292142792046BDE8704047
:1022A00000F0BFB80160897C80F822107047000000
:1022B00070B50C46054600F019F888B9092C0BD00A
:1022C0000A2C01D0002070BD2846FFF7BBFF05494E
:1022D0002846FFF71DFF03E003492846FFF7E2FF0A
:1022E000012070BD9A4200089C4300082DE9F0418E
:1022F0001E46144605460B2908D00D290ED00E297E
:102300001ED00F2927D00020BDE8F0811AB128493E
:10231000FFF7FEFE4AE02649491FF9E74AB1244982
:102320000C31FFF7F5FE286890F8130085F82200BD
:102330003CE01F49491DFFF7EBFE2868807CF5E76C
:10234000FFF71AFF81212846FFF7D2FE21462846D3
:10235000FFF7C6FE27E0FFF70FFF707995F8221010
:1023600001EBC000C7B240212846FFF7C1FE102094
:1023700040EA17112846FFF7BBFE07F00F01284679
:10238000FFF7AEFEB07940F0B0012846FFF7A8FE97
:1023900030793268C006010E2846FFF7B1FE641E90
:1023A00014F0FF04F4D12846FFF792FE0120ABE7BA
:1023B000794200080020704710B54D2919D00CDC77
:1023C0002B2918D004DC292920D02A290ED114E089
:1023D0002D291FD04C2909D10BE0002250291DD0F6
:1023E00051291BD0522919D0532917D0012180F827
:1023F0002710012010BD00BFFBE700204FF4A071A3
:1024000000BF401C80B28842FAD3F2E70120FDF7FA
:1024100065FFEEE70520FFF725F8EAE780F82720BB
:10242000E7E730B444690023A44630BC60472DE997
:10243000F04115460E460446FFF70AFE40212046AD
:10244000FFF7FFFD27692B46324617212046B84784
:102450002046BDE8F041FFF7ECBD002180F82610D2
:10246000704780008400880088008000FE1F4010B4
:102470004010401120122012101008100410020AFF
:1024800001044010E0381C07040104017C01447F72
:10249000441144117C110411041182108210411066
:1024A0002010280448048404927E10422821440805
:1024B00082087D0844084414441444127C224421B8
:1024C000804080008400880088008000FE1F40104B
:1024D0004010401120122012101008100410020A9F
:1024E00001040002040208020802E13F02020202A3
:1024F0000802F87F04020701840044082410F43F16
:10250000202000009F3F90209020903F1E04020456
:10251000C27F42445E44D07F100410241044EA7FFE
:10252000044008020802F47F0202E93F282524251E
:10253000E63F0500F47F04020424A444A450941050
:10254000041F000000000000000001020304060751
:1025500008090000000001020304BF000302040494
:102560000305051012FEFD0BFD0BFE01D5046A0DDF
:10257000802005008C142109B285140F4A360C22E4
:102580000843BD15894B002315A7847849988449D1
:10259000344C499844C39484499864002419D77CE6
:1025A00078E1A028C9940C493684833864C99044E2
:1025B0004BA20C6206251CBC845D62A80CA154943D
:1025C00092548962299323258CA43092B24C0943FA
:1025D00009261CBC847D430E48B2244B39B22343E8
:1025E000344553A40D99380DD9200D920427074185
:1025F000BD134300280CD47475512445BE655A1888
:10260000290DD4741561A66592A748AA012A0A5516
:10261000B45695CAD214012B0B778C78716D18B211
:10262000B8062C0752751417052D07249C150701B1
:102630002E06328514072F0CB484754D59292B654D
:1026400019003014B784589B621BB2211BB2211BA6
:10265000B221536C1300310AB58558CA90F9A721ED
:10266000320DB7843843240D9A6AF4367C3313B79D
:10267000843843240D9A2A6A43AC0ED9102D4304A2
:102680003412B78498E22DD112299222651842554E
:102690001C023513B78438C332487165525675C869
:1026A00086681922003614B7845843240DD9902A1D
:1026B0000FDA900DD920294304370DB784183F262F
:1026C000992AAA46D5063815B784384374C8866C4B
:1026D00058B2214A866DC886E890003915B78458EB
:1026E00043220DDA900DD9A05CD4211B2269880009
:1026F0003A07728514A7613B09927514A7615100CE
:102700003C09778CD8E1743E073D09379C18871C3B
:1027100038043E09778C18F1D331063F0EB6843762
:1027200043220D91A81973D009401DBD849EC33A60
:102730004EDAA4989421B20C89240D89A4B82C26D1
:1027400065D4916C38014116BA849B3AA203899CE6
:10275000C8519A8999386CA9942ADB104216B98419
:102760001A87CCA4499A641B864854444554B4E162
:1027700010014316BA847B83928C8ABC033BA2234C
:102780003AA24372326A83044417BB841C07519CEB
:1027900054495664455664455654495C8641034540
:1027A00015B9841A2FA2A22652450A07510AA58AF2
:1027B0009A88C3414615B9841A2FA2A22652450A07
:1027C00007510AA55007E421054719BB847C8312F1
:1027D0008D929CE840A2433A240E432CA9D2360E97
:1027E00051024819BB841C433624AAA44AAAA44A0D
:1027F000C349955449955465C88600490AB485175C
:102800004322F997214A0EB7847943A8FA222992E4
:1028100012DD004B19BB841C43344462A8A552ACA2
:10282000E4C0202BAB346A9BB80CD1204C16B98481
:102830001A43AC033AA0033AA0033AA0266A220E38
:1028400007014D22BD841E433A24EBB44E899648BD
:10285000899648899648911249911249911249994D
:10286000659286004E1ABB841CEBB2464318255B6A
:1028700014695126D596281CA2748A9539014F1ADD
:10288000BB847C83B84DAAA203430E0C3930E4C04C
:1028900090038A2A6DE3A0015016B9841A07495B98
:1028A000444554B465D874400774401E520051200A
:1028B000EB6C7C83B84DAAA203430E0C3930E4C004
:1028C000906C8AA4488770D021295E7260015216EC
:1028D000BB841C0751DB444DD48CC3AA899A68136E
:1028E00095415B005316B9845A43926C8A9AA8C9E1
:1028F000100FF3301FC2211924005415BA841B9FF6
:10290000A4CD2DD4111DD1111DD1111D183200558A
:1029100017BB841C43B8C8911CC9911CC9911CC920
:10292000919C89E9A0015617BA841B43B6A8919AD5
:1029300069A1166AA9122BB192033A22025721BD4E
:10294000841E4332248BA6459A16695AA6244AA8A7
:10295000244AA8244AA8244AAAC99AAC6900581B48
:10296000BB841C833424A326A6520E2839B00389C5
:102970000E446AA889CB100D025918BA841B43B6BD
:10298000A899166AA9122B39A0233AA2233A3064D7
:10299000005A0FB884190FE1215B5DB7213C1C027E
:1029A0005B09D4741527FFD3105C0DB68417699C9E
:1029B000C6699CC6691C5D0AD4741543E47F1A0677
:1029C0005E0D77A478713A2699226589265F0717EC
:1029D00074178700600734C5169A18610E788459F9
:1029E0004326C9DAA0688A74196216B9841A3BA012
:1029F000033AA003CA3619155111154D4A860863CA
:102A00001077845843240DD9908A89240D090064D5
:102A100015B984BA3BA0033AA02D92B4888AA8883D
:102A200092B42D03650F788459432629E2F00E688D
:102A3000D2A000660DB6845693E26D90446F4304B5
:102A40006714B76CB8CAA06843A60C4A3C4CC39044
:102A50008ACAA0006816B9841A3BA0033AA003CA28
:102A600036D9244DD2244D199221690AA484359275
:102A70003AF932046A0DD56A757660F3DB90280B5B
:102A8000006B10B88419B3A745B26843A8689232A6
:102A90000D6C09B4841593FF32046D147E841FCB32
:102AA000B44D93CDA49934936619922119026E10F6
:102AB00079841ACB36D9244DD2244D1992216F1026
:102AC000788459432629E2100EA122694304701329
:102AD000A96C1ACB361915511195C9B2E9803CA4DD
:102AE000007115A96C594312498BA8888A2849DBC3
:102AF000A2033A200F01720B778417CBC5EA386422
:102B000000730F768437C3900DE1100ED930240086
:102B1000740EA6845669A80D92E89448D1027510E7
:102B200079841AD3A4499AA4499A246DCB007610CB
:102B300078831743B268919629A192CA1A00771731
:102B40007D831C4332248BA6459A962989122A89B3
:102B5000926AB2A601780F788419D3226943AA0E2B
:102B600059A64C037913A86B1743B268919629A113
:102B700092CA72A8842B007A0A76841787CCB76130
:102B8000087B0CD5747652E6560D35632A7C07B166
:102B900087180F027D0ED574166AA819D32C738B73
:102BA00034007E0827A438876401A005008C14A196
:102BB00009B26D15B7643808A213977CB8D91029EB
:102BC0008334289912258B34642100A311B88479A9
:102BD00063E4751865391D9561508604A4128894C4
:102BE0001991940C93451C42459286259202A51694
:102BF000BA841B43B6A899166AA9122BE930CBC335
:102C0000AC034306A608B18718433408A716D67448
:102C10005793A2448A3824D1200D523284833444FD
:102C2000D104A80825C517CA9008A918BB849CB36D
:102C3000A6E540140D49498AA458922AD154073276
:102C4000F308AA0B75A416A3B424AE8300AB0A57ED
:102C50008C588A6F8AA608AC0847941887B801ADCB
:102C600007249C150701AE1ABB849CB3A6E54094CB
:102C70000C51924591B66949962496280732F3087B
:102C8000AF0715C5178300B00A44BD364A24250A8C
:102C900000B10D778C7871360C599C63C310B20A61
:102CA00065AB354BA449A641B30A65AB354B649C73
:102CB0009405B40834C5568A9201B515A96C1A4317
:102CC00032699226699226498764C9111D9001B61E
:102CD0001AB9843AC343A20C8A3228CAA0484322B4
:102CE0002AA2222AA2A20D4300B70722A51543005B
:102CF000B807336D35D910B90964AC35CAE432046C
:102D0000BA0D75A4368B322443A2CC8300BB0B577B
:102D10008C188AA6688A4F00BC19BB843C62B689AD
:102D20005A2AA9523A4C6A342A8998449A324CA9B0
:102D300002BD17BB843C62B6895A2AA9523A2C6B51
:102D40001269A2166AC66C10BE1BBC833C6316597E
:102D5000B51C50C4488917498E562551934854864E
:102D60002D5500BF0FB66C57A21D0C35A33444CAB5
:102D70009000C01BFA845B3AA463395147742091D8
:102D800013394A333113872D9552651B02C11BFA43
:102D900084DB3AA00339554774209113394A333103
:102DA00013872D9552651B02C21BFA84BB3932670B
:102DB00039494774209113394A333113872D95527D
:102DC000651B02C31AEA847B4B98EC341DD1814405
:102DD0004EE428CDC44C1CB6544A956D08C41AEA7A
:102DE000845B464927E9880E24722247692666E2F9
:102DF000B0A552AA6C4300C51CFA849B3A10E5802A
:102E00004ED4111D48E4448ED24CCCC4614BA55421
:102E1000D98600C61EBF839FC3414D443551C34868
:102E20002A46529C0DF230A5A1D4A826A93868C321
:102E300001C71BEA6C7B83928C8ABC033BA2233ABA
:102E4000A24372326A830EE4580E6C00C81BF984E8
:102E50007A3AA24339385C44454DA48A140EA21430
:102E60004A153511878300C918F984DAE61C1E2E2D
:102E7000A2A22652450A07510AA58A9A88C341CAC6
:102E80001BF984BA39B06639365C44454DA48A14BE
:102E90000EA2144A153511878300CB19E9845A36DE
:102EA00049C7868BA8A8895491C2419442A9A226F9
:102EB000E27010CC0DF485179A180E89E45F860035
:102EC000CD0EF5857792942343A4F9A72101CE0E68
:102ED000F58557D992A543A4F9A72101CF0FE68420
:102EE00017D210E9C09089FE6D4800D018BB841C31
:102EF00007519C544956E46108155991155512978C
:102F000061D000D11EEB849C4B9AEC847559A321AF
:102F10008C922D8AB428936A4B140E513AC5CA9CE0
:102F200000D21FFB847C3AA683397110B7495574CF
:102F300060C8812107861C18724051A56D1C3400A1
:102F4000D31FFB84FC888EE8484E1CC46D52151DAF
:102F5000187260C8812107861C5054691B070DD464
:102F60001FFB84BC39B403594E1BC46D52151D1888
:102F70007260C8812107861C5054691B070DD51E3D
:102F8000EB849C4B9AECB441DC2655D18121078619
:102F90001C187260C8014595B671D000D61EEB842E
:102FA0007C922AE9A441DC2655D1812107861C1890
:102FB0007260C8014595B671D000D70F788C18A201
:102FC000226943AA0E99A48802D81CBB847C8394EE
:102FD0006C93AAA8C9104643960D513824A9A24A59
:102FE000DB120D1A00D91CFB849C3AA683396108B8
:102FF00017399223399223399223399233311D3470
:1030000000DA1CFB84FC808EE8484E1AC2458EE430
:10301000488EE4488EE4488EE44C4C070DDB1CFBE4
:1030200084BC39B403594E18C2458EE4488EE44836
:103030008EE4488EE44C4C070DDC1BEB847C922A1A
:10304000E9F0102E722447722447722447722467D5
:10305000623A6800DD1DFA84FB800EE8404E18B22B
:1030600045CDB4504B9558C9011DD1111DD18121B9
:1030700003DE16B9841A43AC0387485B444554B455
:1030800065D874401E5200DF16B884794396299A99
:10309000A2458AA6459AA2299AA20DCA02E013B8AF
:1030A00084593AA023393A6492AC0D8AA648970114
:1030B000E111B88499AA9A53864C92B541D114E98A
:1030C00032E212B88479F1A8E8E89049B236289A39
:1030D000225D06E312A884594A96E8F09049B23678
:1030E000289A225D06E411A88439364547874C9218
:1030F000B541D114E932E512B884796A94EAF090C6
:1031000049B236289A225D06E6147D845E874C9A81
:1031100064511A1E3259DB94211A1400E713A76C6C
:103120005843240DD9908A89240D610E841300E838
:1031300014B884593AA023393A6492220EEF8026BB
:103140000D0A00E912B88499AA9A53864C52C4E138
:103150001DD0A44101EA13B88479F1A8E8E89049A8
:103160008A38BC039A342800EB12A88439364547C4
:10317000874C52C4E11DD0A44101EC0BB484159AD4
:10318000184EBE0C01ED0CB484558A9203932F4364
:1031900000EE0CB58455D962DD7C1A1200EF0CA547
:1031A0008415CA90A89B4F4302F015B884199A362B
:1031B0000E59260E92451CC22154246D8800F1142C
:1031C000A9847A4A98E8E8B24D364993344953863F
:1031D0006408F215B884593AA023393A6492220E51
:1031E000E1102A92364400F313B88499AA9A5386C0
:1031F0004C52C4211C4245D28608F414B88479F19B
:10320000A8E8E890498A388443A848DA1001F51400
:10321000A884594A96E8F090498A388443A848DA45
:103220001001F613A88439364547874C52C4211C37
:103230004245D28608F70D788C78B20E0E830ECAFE
:103240001A00F814987CD9D990298B940C4934240D
:10325000912269431603F916B9845A3AA243393ABE
:103260002443A2499AA4499A246DCB00FA14B98444
:103270009AB29C53866448344993344993A46D1997
:10328000FB16B9849A39B02A3A382443A2499AA441
:10329000499A246DCB00FC15A9845A8AA8E8E090CD
:1032A0000C89266992266992B42D03FD15E86BB747
:1032B000D61C1D92458BB44C0995549643255C0150
:1032C000FE19E96C1A3BA0033AA003CA361915513E
:1032D0001195C9B2E9803CA400FF16D86B578AA6A5
:1032E000E8D0902C5AA4654AA8A4B21C2AE10A008E
:1032F000000004FFFF0000BF0003030505040506EE
:103300001213FEFD0CFD0CFE023805110F542006B1
:1033100000642401210D83252C13395442D18825C2
:1033200002220CA5E03521611945421100231A8AB9
:10333000215427128A8422D1417210298A4407C954
:1033400041A428128A6400241DE9E1531987846B83
:103350009250441429A5188F9650A81222852492C1
:1033600088AC1C0425258C2574350B4E88A248504A
:1033700016098A22515124329A4426D1882818915C
:103380000523A26048148C8D00261D8C25744907E6
:1033900088C422B1280EA0034814C948329A846414
:1033A000B4A592A534012708A2E425718900280E4E
:1033B000C4A533170AA988F426920503290FC4A1CE
:1033C00033118C896422BD884469002A11E7604565
:1033D000178CA44822A2912422C918032B0D08257A
:1033E0005427563B1C646235002C0CC4602B23A16F
:1033F0008C429218002D0744E02C71082E0964209D
:103400002C23A148002F0F85212C99164C0BC68226
:1034100069C1200030148921543795C89464929969
:10342000B7894C245391CE00310A872554272AEEC0
:103430009F0E3213882554458B4946A6496C38D5D2
:1034400016111E0E03331589215455132DC96262BE
:1034500069790E98C84E13D1AC0434158921541DD6
:103460000788A7C4C830320B8D62A383703C3C35FB
:10347000148825547331C50171402D349EC44CA667
:10348000D2A804361689215457134D441499643C2C
:103490001951D66C13D96491043712882554F11050
:1034A000094A82926058552C5D0E023815882554C1
:1034B00045134946A68948461349464E13918C0444
:1034C0003917892154459CAC4966B6C98434194FD3
:1034D0006412926424AB013A0D04212C23A1C8612B
:1034E000128A04003B0F64612B23A1C86112CA2811
:1034F0002489013C0B0865542D24319299053D0B1C
:10350000C86454F120473A1C043E0B08655421E678
:10351000486214033F148821444513492813D1708D
:103520002A8DA384A7E32000401EACE163599D8D42
:10353000E480504C12214944FA178A64120AC96285
:1035400072806836AD01411C8D216C2B07CE6173F2
:10355000101D1499032473406C7A88CAA6D19974FB
:103560004433421A8C216C7118CE1647C3D16C7645
:1035700008CE1647C3D170349B1C4600431B8B25D5
:103580006C5909CD2653C9980EA043E690392032D4
:103590008E4C6333290D00441A8D21747110CF862F
:1035A0006BC3D974341D4D47D3D170369C2D1D8407
:1035B0000045198B216471200D4543D1286922B53E
:1035C0004EA4A3A46968281A1E0C46198B216471A5
:1035D000200D4543D1286922B54EA4A3E81C3287AB
:1035E0008C8F00471B8D25745909CE5665E3D01C7E
:1035F000109AC36687E96C381B2E91492100480F49
:103600008E217C71310DF7E361B8FF7431490A876F
:10361000213C711AEE9F0E4A188A215C779D03E6C1
:103620008039600E98894694D15270241A16014B45
:103630001C8E216C71A90DA533F1480E98C8217715
:10364000C01D30218FA833E29072314C198B216458
:10365000719E43E69039640E9943E69069681A1AA0
:103660008A8607034D25902184613411899119318F
:10367000328A0C23A3C83034890C43A46188348C6B
:103680008D8631D9306D540A194E1E8E2174412D0C
:103690008D83D4603185160C9182314A30588C125A
:1036A000C3C33840540E014F168C2574491ECD8675
:1036B000A3E164EC79321C0D67A3311100501A8C20
:1036C000216C7118CE1647C3D170349B1D8273D004
:1036D0001C3407CD015700511EEC6573491ECD8681
:1036E000A3E164EC493491842222B6D1B80E9BC484
:1036F0000175C80400521B8D21747198CE866BC36E
:10370000D9E2213A128FA6B3E16C129A1D68130018
:10371000531489255C5549AC926D11A32566A616F4
:103720002391120054198B21647130ADCD64B3E044
:103730001C3287CC2173C81C32878C4F00551B8EDE
:103740002174712A8D83E3E038380E8E83E3E038EC
:10375000388E0EC32439840A561D8D1D6C71224D7E
:1037600065C4E8303A8B034671C0240EA983E8A0F3
:1037700039500E940257228F2184516199E9161C09
:103780008D82A3897042094B229230853C9A436412
:1037900072884C0E910901581A8C216451AA4C650B
:1037A000C3E8285C87D021744839440CCEA49352D6
:1037B00001591C8D1D6471290DA5B3F0280E99C403
:1037C0002174D81C3687CD6173D81C72035A1489B2
:1037D000255C71201227C1E9F27416194666B543BB
:1037E000015B09C4A53361D2FF445C1087255421D5
:1037F000154BC552B1542C154B055D09C4A53B4171
:10380000D2FF645E0DE864552796D2445A84440181
:103810005F0748A043F1206008646036219A09617F
:1038200011092154635A910D4BA2C96832214D08E8
:10383000621B8B1D5C5187CC2173C81CB248992D2B
:10384000CD46B3D16C449945222300630E08214C28
:10385000551A95AC6B92898C04641A8B215C4B874A
:10386000CC2173C870329B9066A3D968369AAD108C
:103870002791016510092154559BAC1D0EE1A164EF
:10388000242B016610891D3C49948C26B2E171BC41
:10389000C7130067148961530F105DB6D92EA3A218
:1038A0001C7039100F140068198B1D5C4187CC21E6
:1038B00073C81C32A19146A4B5D16C341BCD260D22
:1038C000690C8521342322C901A47D296A10E65997
:1038D0003327A3C921B57DAB544423006B178B213B
:1038E0005C4187CC2173C81C3229AD4D86D6E36874
:1038F000B6D2006C0985213441DA7F296D100F2181
:10390000844119CD2894D1FE7FA94C0A6E120B1D5B
:103910005C41A191D646B3D16C341BCD260D6F0FFF
:103920000A215C471C4D861E27A3210D0070186AD2
:103930005D5B41995146B3C96C329BCC2694D164EE
:1039400036078CAB0071166A5D535509ADCC26B3B2
:10395000C96C321BADDD0173C0B800720E09214C79
:103960004119519644E3AD4500730D072144439935
:10397000D54EB7DA8402740F66213C170D8A2CB33A
:103980005D22A5090075140B1D5C4122CD46B3D103
:103990006C341BCD46145A650076130A215451A18C
:1039A000CC4423E144380993E710210077180F2114
:1039B0007C516199A98D46C109454A2153E8009976
:1039C0001C221302780F09215451598B55C7D35A21
:1039D0006C322979176A5D5351A1CC6423D9285AD6
:1039E0009E03E610A9243A094F017A0F07214C7172
:1039F000104942B3A170443A087B0DC4A533251188
:103A0000E92213E94D007C08823154F161007D0DFB
:103A1000C4A1332113E92611E945047E0C68E4545E
:103A2000338A1C22A10900A00600642401A10D8391
:103A3000652B13B1444391432502A21588A1530F6E
:103A400008C74AA3924B6C128A8C62C4701800A3F8
:103A500017892154571B494693D164161B5EE50014
:103A6000294D62928C00A41508A5541391440E119F
:103A70009144489488248748441201A5158A21540A
:103A800051A1CCD48213A9244C358BCD7288D80493
:103A9000A60982315471181E06A718E6654B350A2F
:103AA000494212A98C121BCE2234A9441411854616
:103AB00000A80845603621A108A91C8C2164671D57
:103AC000CDC4125185220A8DC422F14424219124AF
:103AD00062D9686A03AA0EE66035330A89284A1259
:103AE000710500AB0CA6A4449522A18824A204ACC5
:103AF00009A8A054F120D600AD0744E02C7108AE0F
:103B00001C8C2164671DCDC412498994341BCA22C0
:103B1000B25148429954C4B2D1D406AF0625A0365A
:103B200051B00CA5E43D3391CC26920900B10F2889
:103B3000255427961D0E32B11C783808B20CE5606A
:103B40003533095164690701B30FE6603543114904
:103B50004232518824A100B408646436252901B595
:103B6000196B615B4122CD46B3D16C341BCD461439
:103B70009264450E9A43E600B61B8B216473388429
:103B800044255149549291A422A9482A928AA422F8
:103B9000D96100B70964E02C23A14800B80984600A
:103BA0003313935500B909E464351519E942BA0B8A
:103BB000E560353391B048C605BB0EA6A444110A92
:103BC0004944128A241402BC1B8C2574150E4D65C1
:103BD00042C5A84C2A4BA188A4A26928516292CA66
:103BE000A204BD1C8C2574150E4D6542C5A84C2A37
:103BF0008B4C2823A144311A140685A46001BE1EF3
:103C00008D2174430DA9C942CAB268482214496281
:103C1000218A482C1A87522536A9304ABF14886158
:103C200043199E8EE32851E97024995044321200C2
:103C3000C0220D226C2707CEA1726C72E01C3607E1
:103C4000D1419139403207C4A687A86C1A9D4947D3
:103C50003403C1230D226C0F90C3E620393639702E
:103C60000E9B83E8A0C81C20990362D34354368D71
:103C7000CEA4239A01C2230D226C1D07CE41123916
:103C80001639700E9B83E8A0C81C20990362D343A9
:103C900054368DCEA4239A01C322ED216C398903B9
:103CA00022734C72E01C3607D1419139403207C46F
:103CB000A687A86C1A9D49473403C422ED216C27BE
:103CC000920344722C72E01C3607D1419139403284
:103CD00007C4A687A86C1A9D49473403C5230D2243
:103CE0006C2B8745E430393639700E9B83E8A0C8C9
:103CF0001C20990362D34354368DCEA4239A01C667
:103D000021901D8477B016A591A134324A0C4DE460
:103D100080903936119F324E43C1A14438B41C08FB
:103D2000C720EB656B5909CD2653C9980EA043E611
:103D3000903920328E4C6333291D2087C9015300EE
:103D4000C81E0B22642707CD6172940369281A8A62
:103D5000464913A975221D254D4343D1F060C91F63
:103D60000B22640F9043E60039CA8134140D45A339
:103D7000A489D43A918E92A6A1A1687830CA1F0B6B
:103D800022641D07CD011239F8401A8A86A251D249
:103D9000446A9D484749D3D050343C18CB1DEB2191
:103DA0006427928AE4E00369281A8A464913A975B0
:103DB000221D254D4343D1F060CC0E07223C231D2C
:103DC000CB41A7E1FEE900CD0E07223C299CC96149
:103DD000A7E1FEE900CE0E07223C179D49E490D3EF
:103DE00070FF74CF0EE7213CA32491434EC3FDD353
:103DF00001D01A8D21747110CF866BC3D974621BE8
:103E00004D47D3D170369C2D1D8400D124EE2174F2
:103E10003B89432273546A691CA4068B29B46088C9
:103E2000148C5182C16294181EC601A2720800D27D
:103E30001B0C26742787CD81720CE4D16C381A4E86
:103E4000C69E27C3D170361A1301D31C0C26740FDB
:103E50009083E6103906F268361C0D2763CF93E194
:103E600068381B8D8900D41C0C26742B07D10122C5
:103E7000392A79341B8E8693B1E7C970349C8DC67C
:103E80004400D51AEC2574390947E6C8E4D16C38EA
:103E90001A4EC69E27C3D170361A1301D61AEC25C6
:103EA0007427128BE4A8E4D16C381A4EC69E27C33F
:103EB000D170361A1301D711082554138C8C26B6ED
:103EC000F1CC329A042300D820CCE5730F0C926217
:103ED000A3D970349C0C23B6902966094E86A3E1C1
:103EE0006C340B11E34000D9210E22742B87CEC114
:103EF00072D453691C1C07C7C171701C1C07C7C151
:103F000071741826C9215400DA220E22740F92030C
:103F1000E73039EAA9340E8E83E3E038380E8E8319
:103F2000E3E0383A0C93E4102A00DB220E22740FEF
:103F30009003E92075B453691C1C07C7C171701C3C
:103F40001C07C7C171741826C9215400DC21EE2159
:103F5000742B92434472B453691C1C07C7C171701F
:103F60001C1C07C7C171741826C9215400DD230D1C
:103F70001E640F91C3E62039E2A53494CEC2A33863
:103F8000641287D06173D81C3687CD6173C80D0069
:103F9000DE1A8C216C7107CC4187E06C71341C0DEA
:103FA00047B3D9213807CD015700DF178A2154576D
:103FB00014ED936C329B896693D96436A14C282307
:103FC00000E0168921542307CC217204D38A6C584F
:103FD000124D4693096942E1158921542B9ECA115D
:103FE0004C2BB2614934194D26A40901E2168921EE
:103FF0005417074C2572B06945362C8926A3C9840D
:104000003421E315692154358945E660D38A6C581B
:10401000124D4693096942E415692154A3289183FE
:104020004D2BB2614934194D26A40901E5168921A9
:1040300054278E88E508A615D9B0249A8C2613D269
:104040008400E6160D217C53212D4964A3D18122E1
:104050009A8E661592885202E71368614B551A953D
:104060006CD5996422A3CA01C21900E816892154AB
:104070002507CC217284DA64ED70080F25235909D5
:1040800000E9148921542B9ECA516A93B5C3213C7F
:10409000948C642500EA1589215419074C25727007
:1040A0006DB2763884879291AC04EB156921542562
:1040B000114AE4E0DA64ED70080F2523590900EC99
:1040C0000B852134211B8A49FB52ED0C85213427B5
:1040D0009AC801A47D29EE0C852134159BA892F67F
:1040E000A500EF0B65213421A14849FB52F015A929
:1040F000215C23874C8453891C302C4D6EDE268B2B
:104100003300F1176B1D5C398946E608141A696D96
:10411000341BCD46B3D16CD200F2148A215C2787C0
:10412000CC417214DB6832F43819CD4C00F3138A99
:10413000215C2D078CE548B6D164E871329A99006C
:10414000F4148A215C290750457204DB6832F43884
:1041500019CD4C00F5136A215C370946E628B6D123
:1041600064E871329A9900F6136A215C25914AE459
:1041700028B6D164E871329A9900F70E08255427C1
:1041800096030F0739502C03F81989A1530F89039F
:1041900082B4916474895822A78968468C03E2101E
:1041A00000F9198B1D5C2707CD6172141269369ACC
:1041B0008D66A3D96836A2D02A03FA188B1D5C2D10
:1041C00087CC017224A6D968369A8D66A3D9884215
:1041D000AB0CFB1A8B1D5C1B07CD01123902893415
:1041E0001BCD46B3D16C341B51689501FC186B1D77
:1041F0005C27114BE40824D26C341BCD46B3D16C40
:1042000044A15506FD1FEB5D532D87CC0172A44AD6
:1042100065289B4545D2491C4007CC41624978122C
:10422000078C01FE1FEA5D5B4107CC0173C01C30A7
:10423000995146B3C96C329BCC2694D16436078C15
:104240008D00FF1ECB5D5327114BE408959250362D
:104250008B8AA49338800E9883C492F0240E18039E
:1042600000000004FFFF00005B1F00085F1F000844
:104270007F1A00081815AF19FF1815AE19FF181589
:10428000A115C819FF1815A015C019FF1815A115FB
:10429000C019FF1815A015C819FF1815AE15D516A9
:1042A0008015A8163F15D316001540158D16141548
:1042B00020160015A115C815DA1612158116CF158E
:1042C000D916F115DB1640152E15A415A619FF18E1
:1042D00015AE15D5168015A8163F15D31600154036
:1042E000158D16141520160015A115C815DA16120D
:1042F000158116EF15D916A115DB1600152E15A47C
:1043000015A619FF1815AE15D5168015A8163F1558
:10431000D316001540158D16141520160015A1157D
:10432000C815DA1602158116CF15D916F115DB1648
:1043300040152E15A415A619FF1815AE15A415D5F0
:10434000165015A8163F15D31600154015AD168B3F
:1043500015D9162215DB16351532158116FF15A64F
:1043600015DA161219FF1815AE15D5168015A816F0
:104370003F15D316001540158D161415201600157F
:10438000A115C015DA1612158116CF15D916F1151B
:10439000DB1640152E15A415A619FF000001140AFE
:1043A0006464323200127A0000042896100800007B
:1043B000800040000001140A6464323200093D00AC
:1043C000030428961008020280004000EC43000815
:1043D0000000002018000000280100080444000824
:1043E00018000020800B00004401000801000000BC
:1043F00010000000000000000024F4000000000095
:0444000000000000B8
:04000005080000ED02
:00000001FF
